{
  "contractName": "RealEstate",
  "abi": [
    {
      "inputs": [],
      "stateMutability": "nonpayable",
      "type": "constructor"
    },
    {
      "anonymous": false,
      "inputs": [
        {
          "indexed": true,
          "internalType": "address",
          "name": "owner",
          "type": "address"
        },
        {
          "indexed": true,
          "internalType": "address",
          "name": "spender",
          "type": "address"
        },
        {
          "indexed": false,
          "internalType": "uint256",
          "name": "value",
          "type": "uint256"
        }
      ],
      "name": "Approval",
      "type": "event"
    },
    {
      "anonymous": false,
      "inputs": [
        {
          "indexed": false,
          "internalType": "uint256",
          "name": "propertyId",
          "type": "uint256"
        },
        {
          "indexed": false,
          "internalType": "uint256",
          "name": "totalShares",
          "type": "uint256"
        },
        {
          "indexed": false,
          "internalType": "uint256",
          "name": "dividendPerShare",
          "type": "uint256"
        },
        {
          "indexed": false,
          "internalType": "uint256",
          "name": "shareholderCount",
          "type": "uint256"
        }
      ],
      "name": "DebugDividends",
      "type": "event"
    },
    {
      "anonymous": false,
      "inputs": [
        {
          "indexed": true,
          "internalType": "uint256",
          "name": "propertyId",
          "type": "uint256"
        },
        {
          "indexed": false,
          "internalType": "uint256",
          "name": "amount",
          "type": "uint256"
        }
      ],
      "name": "DividendDistributed",
      "type": "event"
    },
    {
      "anonymous": false,
      "inputs": [
        {
          "indexed": true,
          "internalType": "address",
          "name": "previousOwner",
          "type": "address"
        },
        {
          "indexed": true,
          "internalType": "address",
          "name": "newOwner",
          "type": "address"
        }
      ],
      "name": "OwnershipTransferred",
      "type": "event"
    },
    {
      "anonymous": false,
      "inputs": [
        {
          "indexed": true,
          "internalType": "uint256",
          "name": "propertyId",
          "type": "uint256"
        },
        {
          "indexed": false,
          "internalType": "string",
          "name": "name",
          "type": "string"
        },
        {
          "indexed": false,
          "internalType": "uint256",
          "name": "totalShares",
          "type": "uint256"
        },
        {
          "indexed": false,
          "internalType": "uint256",
          "name": "pricePerShare",
          "type": "uint256"
        }
      ],
      "name": "PropertyListed",
      "type": "event"
    },
    {
      "anonymous": false,
      "inputs": [
        {
          "indexed": true,
          "internalType": "uint256",
          "name": "propertyId",
          "type": "uint256"
        },
        {
          "indexed": true,
          "internalType": "address",
          "name": "reviewer",
          "type": "address"
        },
        {
          "indexed": false,
          "internalType": "uint8",
          "name": "rating",
          "type": "uint8"
        },
        {
          "indexed": false,
          "internalType": "string",
          "name": "comment",
          "type": "string"
        }
      ],
      "name": "ReviewAdded",
      "type": "event"
    },
    {
      "anonymous": false,
      "inputs": [
        {
          "indexed": true,
          "internalType": "uint256",
          "name": "propertyId",
          "type": "uint256"
        },
        {
          "indexed": true,
          "internalType": "address",
          "name": "shareholder",
          "type": "address"
        },
        {
          "indexed": false,
          "internalType": "uint256",
          "name": "shares",
          "type": "uint256"
        },
        {
          "indexed": false,
          "internalType": "uint256",
          "name": "dividendAmount",
          "type": "uint256"
        }
      ],
      "name": "ShareholderDividendSent",
      "type": "event"
    },
    {
      "anonymous": false,
      "inputs": [
        {
          "indexed": true,
          "internalType": "uint256",
          "name": "propertyId",
          "type": "uint256"
        },
        {
          "indexed": false,
          "internalType": "address",
          "name": "buyer",
          "type": "address"
        },
        {
          "indexed": false,
          "internalType": "uint256",
          "name": "shares",
          "type": "uint256"
        }
      ],
      "name": "SharesPurchased",
      "type": "event"
    },
    {
      "anonymous": false,
      "inputs": [
        {
          "indexed": true,
          "internalType": "address",
          "name": "from",
          "type": "address"
        },
        {
          "indexed": true,
          "internalType": "address",
          "name": "to",
          "type": "address"
        },
        {
          "indexed": false,
          "internalType": "uint256",
          "name": "value",
          "type": "uint256"
        }
      ],
      "name": "Transfer",
      "type": "event"
    },
    {
      "anonymous": false,
      "inputs": [
        {
          "indexed": false,
          "internalType": "address",
          "name": "user",
          "type": "address"
        }
      ],
      "name": "UserRegistered",
      "type": "event"
    },
    {
      "inputs": [
        {
          "internalType": "address",
          "name": "owner",
          "type": "address"
        },
        {
          "internalType": "address",
          "name": "spender",
          "type": "address"
        }
      ],
      "name": "allowance",
      "outputs": [
        {
          "internalType": "uint256",
          "name": "",
          "type": "uint256"
        }
      ],
      "stateMutability": "view",
      "type": "function",
      "constant": true
    },
    {
      "inputs": [
        {
          "internalType": "address",
          "name": "spender",
          "type": "address"
        },
        {
          "internalType": "uint256",
          "name": "amount",
          "type": "uint256"
        }
      ],
      "name": "approve",
      "outputs": [
        {
          "internalType": "bool",
          "name": "",
          "type": "bool"
        }
      ],
      "stateMutability": "nonpayable",
      "type": "function"
    },
    {
      "inputs": [
        {
          "internalType": "address",
          "name": "account",
          "type": "address"
        }
      ],
      "name": "balanceOf",
      "outputs": [
        {
          "internalType": "uint256",
          "name": "",
          "type": "uint256"
        }
      ],
      "stateMutability": "view",
      "type": "function",
      "constant": true
    },
    {
      "inputs": [],
      "name": "decimals",
      "outputs": [
        {
          "internalType": "uint8",
          "name": "",
          "type": "uint8"
        }
      ],
      "stateMutability": "view",
      "type": "function",
      "constant": true
    },
    {
      "inputs": [
        {
          "internalType": "address",
          "name": "spender",
          "type": "address"
        },
        {
          "internalType": "uint256",
          "name": "subtractedValue",
          "type": "uint256"
        }
      ],
      "name": "decreaseAllowance",
      "outputs": [
        {
          "internalType": "bool",
          "name": "",
          "type": "bool"
        }
      ],
      "stateMutability": "nonpayable",
      "type": "function"
    },
    {
      "inputs": [
        {
          "internalType": "uint256",
          "name": "",
          "type": "uint256"
        },
        {
          "internalType": "address",
          "name": "",
          "type": "address"
        }
      ],
      "name": "hasReviewed",
      "outputs": [
        {
          "internalType": "bool",
          "name": "",
          "type": "bool"
        }
      ],
      "stateMutability": "view",
      "type": "function",
      "constant": true
    },
    {
      "inputs": [
        {
          "internalType": "address",
          "name": "spender",
          "type": "address"
        },
        {
          "internalType": "uint256",
          "name": "addedValue",
          "type": "uint256"
        }
      ],
      "name": "increaseAllowance",
      "outputs": [
        {
          "internalType": "bool",
          "name": "",
          "type": "bool"
        }
      ],
      "stateMutability": "nonpayable",
      "type": "function"
    },
    {
      "inputs": [],
      "name": "name",
      "outputs": [
        {
          "internalType": "string",
          "name": "",
          "type": "string"
        }
      ],
      "stateMutability": "view",
      "type": "function",
      "constant": true
    },
    {
      "inputs": [],
      "name": "owner",
      "outputs": [
        {
          "internalType": "address",
          "name": "",
          "type": "address"
        }
      ],
      "stateMutability": "view",
      "type": "function",
      "constant": true
    },
    {
      "inputs": [
        {
          "internalType": "uint256",
          "name": "",
          "type": "uint256"
        }
      ],
      "name": "properties",
      "outputs": [
        {
          "internalType": "string",
          "name": "name",
          "type": "string"
        },
        {
          "internalType": "string",
          "name": "location",
          "type": "string"
        },
        {
          "internalType": "uint256",
          "name": "totalValue",
          "type": "uint256"
        },
        {
          "internalType": "uint256",
          "name": "totalShares",
          "type": "uint256"
        },
        {
          "internalType": "uint256",
          "name": "availableShares",
          "type": "uint256"
        },
        {
          "internalType": "uint256",
          "name": "pricePerShare",
          "type": "uint256"
        },
        {
          "internalType": "bool",
          "name": "isListed",
          "type": "bool"
        },
        {
          "internalType": "address",
          "name": "owner",
          "type": "address"
        },
        {
          "internalType": "uint256",
          "name": "totalRating",
          "type": "uint256"
        },
        {
          "internalType": "uint256",
          "name": "numberOfRatings",
          "type": "uint256"
        }
      ],
      "stateMutability": "view",
      "type": "function",
      "constant": true
    },
    {
      "inputs": [],
      "name": "propertyCount",
      "outputs": [
        {
          "internalType": "uint256",
          "name": "",
          "type": "uint256"
        }
      ],
      "stateMutability": "view",
      "type": "function",
      "constant": true
    },
    {
      "inputs": [
        {
          "internalType": "uint256",
          "name": "",
          "type": "uint256"
        },
        {
          "internalType": "uint256",
          "name": "",
          "type": "uint256"
        }
      ],
      "name": "propertyReviews",
      "outputs": [
        {
          "internalType": "address",
          "name": "reviewer",
          "type": "address"
        },
        {
          "internalType": "uint8",
          "name": "rating",
          "type": "uint8"
        },
        {
          "internalType": "string",
          "name": "comment",
          "type": "string"
        },
        {
          "internalType": "uint256",
          "name": "timestamp",
          "type": "uint256"
        }
      ],
      "stateMutability": "view",
      "type": "function",
      "constant": true
    },
    {
      "inputs": [
        {
          "internalType": "uint256",
          "name": "",
          "type": "uint256"
        },
        {
          "internalType": "address",
          "name": "",
          "type": "address"
        }
      ],
      "name": "propertyShares",
      "outputs": [
        {
          "internalType": "uint256",
          "name": "",
          "type": "uint256"
        }
      ],
      "stateMutability": "view",
      "type": "function",
      "constant": true
    },
    {
      "inputs": [
        {
          "internalType": "address",
          "name": "",
          "type": "address"
        }
      ],
      "name": "registeredUsers",
      "outputs": [
        {
          "internalType": "bool",
          "name": "",
          "type": "bool"
        }
      ],
      "stateMutability": "view",
      "type": "function",
      "constant": true
    },
    {
      "inputs": [],
      "name": "renounceOwnership",
      "outputs": [],
      "stateMutability": "nonpayable",
      "type": "function"
    },
    {
      "inputs": [],
      "name": "symbol",
      "outputs": [
        {
          "internalType": "string",
          "name": "",
          "type": "string"
        }
      ],
      "stateMutability": "view",
      "type": "function",
      "constant": true
    },
    {
      "inputs": [],
      "name": "totalSupply",
      "outputs": [
        {
          "internalType": "uint256",
          "name": "",
          "type": "uint256"
        }
      ],
      "stateMutability": "view",
      "type": "function",
      "constant": true
    },
    {
      "inputs": [
        {
          "internalType": "address",
          "name": "to",
          "type": "address"
        },
        {
          "internalType": "uint256",
          "name": "amount",
          "type": "uint256"
        }
      ],
      "name": "transfer",
      "outputs": [
        {
          "internalType": "bool",
          "name": "",
          "type": "bool"
        }
      ],
      "stateMutability": "nonpayable",
      "type": "function"
    },
    {
      "inputs": [
        {
          "internalType": "address",
          "name": "from",
          "type": "address"
        },
        {
          "internalType": "address",
          "name": "to",
          "type": "address"
        },
        {
          "internalType": "uint256",
          "name": "amount",
          "type": "uint256"
        }
      ],
      "name": "transferFrom",
      "outputs": [
        {
          "internalType": "bool",
          "name": "",
          "type": "bool"
        }
      ],
      "stateMutability": "nonpayable",
      "type": "function"
    },
    {
      "inputs": [
        {
          "internalType": "address",
          "name": "newOwner",
          "type": "address"
        }
      ],
      "name": "transferOwnership",
      "outputs": [],
      "stateMutability": "nonpayable",
      "type": "function"
    },
    {
      "inputs": [],
      "name": "registerUser",
      "outputs": [],
      "stateMutability": "nonpayable",
      "type": "function"
    },
    {
      "inputs": [
        {
          "internalType": "string",
          "name": "_name",
          "type": "string"
        },
        {
          "internalType": "string",
          "name": "_location",
          "type": "string"
        },
        {
          "internalType": "uint256",
          "name": "_totalValue",
          "type": "uint256"
        },
        {
          "internalType": "uint256",
          "name": "_totalShares",
          "type": "uint256"
        },
        {
          "internalType": "uint256",
          "name": "_pricePerShare",
          "type": "uint256"
        }
      ],
      "name": "listProperty",
      "outputs": [],
      "stateMutability": "nonpayable",
      "type": "function"
    },
    {
      "inputs": [
        {
          "internalType": "uint256",
          "name": "_propertyId",
          "type": "uint256"
        },
        {
          "internalType": "uint256",
          "name": "_shares",
          "type": "uint256"
        }
      ],
      "name": "purchaseShares",
      "outputs": [],
      "stateMutability": "payable",
      "type": "function",
      "payable": true
    },
    {
      "inputs": [
        {
          "internalType": "uint256",
          "name": "_propertyId",
          "type": "uint256"
        },
        {
          "internalType": "address",
          "name": "_user",
          "type": "address"
        }
      ],
      "name": "getPropertyShares",
      "outputs": [
        {
          "internalType": "uint256",
          "name": "",
          "type": "uint256"
        }
      ],
      "stateMutability": "view",
      "type": "function",
      "constant": true
    },
    {
      "inputs": [
        {
          "internalType": "uint256",
          "name": "_propertyId",
          "type": "uint256"
        }
      ],
      "name": "distributeDividends",
      "outputs": [],
      "stateMutability": "payable",
      "type": "function",
      "payable": true
    },
    {
      "inputs": [
        {
          "internalType": "uint256",
          "name": "_propertyId",
          "type": "uint256"
        },
        {
          "internalType": "address",
          "name": "_shareholder",
          "type": "address"
        }
      ],
      "name": "getShareholderDetails",
      "outputs": [
        {
          "internalType": "uint256",
          "name": "shares",
          "type": "uint256"
        },
        {
          "internalType": "bool",
          "name": "isShareholder",
          "type": "bool"
        }
      ],
      "stateMutability": "view",
      "type": "function",
      "constant": true
    },
    {
      "inputs": [
        {
          "internalType": "address",
          "name": "_user",
          "type": "address"
        }
      ],
      "name": "isUserRegistered",
      "outputs": [
        {
          "internalType": "bool",
          "name": "",
          "type": "bool"
        }
      ],
      "stateMutability": "view",
      "type": "function",
      "constant": true
    },
    {
      "inputs": [
        {
          "internalType": "uint256",
          "name": "_propertyId",
          "type": "uint256"
        }
      ],
      "name": "getProperty",
      "outputs": [
        {
          "internalType": "string",
          "name": "name",
          "type": "string"
        },
        {
          "internalType": "string",
          "name": "location",
          "type": "string"
        },
        {
          "internalType": "uint256",
          "name": "totalValue",
          "type": "uint256"
        },
        {
          "internalType": "uint256",
          "name": "totalShares",
          "type": "uint256"
        },
        {
          "internalType": "uint256",
          "name": "availableShares",
          "type": "uint256"
        },
        {
          "internalType": "uint256",
          "name": "pricePerShare",
          "type": "uint256"
        },
        {
          "internalType": "bool",
          "name": "isListed",
          "type": "bool"
        },
        {
          "internalType": "address",
          "name": "owner",
          "type": "address"
        }
      ],
      "stateMutability": "view",
      "type": "function",
      "constant": true
    },
    {
      "inputs": [
        {
          "internalType": "uint256",
          "name": "_propertyId",
          "type": "uint256"
        },
        {
          "internalType": "uint8",
          "name": "_rating",
          "type": "uint8"
        },
        {
          "internalType": "string",
          "name": "_comment",
          "type": "string"
        }
      ],
      "name": "addReview",
      "outputs": [],
      "stateMutability": "nonpayable",
      "type": "function"
    },
    {
      "inputs": [
        {
          "internalType": "uint256",
          "name": "_propertyId",
          "type": "uint256"
        }
      ],
      "name": "getPropertyRating",
      "outputs": [
        {
          "internalType": "uint256",
          "name": "averageRating",
          "type": "uint256"
        },
        {
          "internalType": "uint256",
          "name": "numReviews",
          "type": "uint256"
        }
      ],
      "stateMutability": "view",
      "type": "function",
      "constant": true
    },
    {
      "inputs": [
        {
          "internalType": "uint256",
          "name": "_propertyId",
          "type": "uint256"
        }
      ],
      "name": "getPropertyReviews",
      "outputs": [
        {
          "components": [
            {
              "internalType": "address",
              "name": "reviewer",
              "type": "address"
            },
            {
              "internalType": "uint8",
              "name": "rating",
              "type": "uint8"
            },
            {
              "internalType": "string",
              "name": "comment",
              "type": "string"
            },
            {
              "internalType": "uint256",
              "name": "timestamp",
              "type": "uint256"
            }
          ],
          "internalType": "struct RealEstate.Review[]",
          "name": "",
          "type": "tuple[]"
        }
      ],
      "stateMutability": "view",
      "type": "function",
      "constant": true
    },
    {
      "inputs": [
        {
          "internalType": "uint256",
          "name": "_propertyId",
          "type": "uint256"
        }
      ],
      "name": "getPropertyShareholders",
      "outputs": [
        {
          "internalType": "address[]",
          "name": "shareholders",
          "type": "address[]"
        },
        {
          "internalType": "uint256[]",
          "name": "shareAmounts",
          "type": "uint256[]"
        }
      ],
      "stateMutability": "view",
      "type": "function",
      "constant": true
    },
    {
      "inputs": [
        {
          "internalType": "uint256",
          "name": "_propertyId",
          "type": "uint256"
        },
        {
          "internalType": "address",
          "name": "_address",
          "type": "address"
        }
      ],
      "name": "isShareHolder",
      "outputs": [
        {
          "internalType": "bool",
          "name": "",
          "type": "bool"
        }
      ],
      "stateMutability": "view",
      "type": "function",
      "constant": true
    }
  ],
  "bytecode": "0x60806040523480156200001157600080fd5b506040518060400160405280601081526020017f5265616c45737461746520546f6b656e000000000000000000000000000000008152506040518060400160405280600481526020017f524553540000000000000000000000000000000000000000000000000000000081525081600390816200008f919062000412565b508060049081620000a1919062000412565b505050620000c4620000b8620000ca60201b60201c565b620000d260201b60201c565b620004f9565b600033905090565b6000600560009054906101000a900473ffffffffffffffffffffffffffffffffffffffff16905081600560006101000a81548173ffffffffffffffffffffffffffffffffffffffff021916908373ffffffffffffffffffffffffffffffffffffffff1602179055508173ffffffffffffffffffffffffffffffffffffffff168173ffffffffffffffffffffffffffffffffffffffff167f8be0079c531659141344cd1fd0a4f28419497f9722a3daafe3b4186f6b6457e060405160405180910390a35050565b600081519050919050565b7f4e487b7100000000000000000000000000000000000000000000000000000000600052604160045260246000fd5b7f4e487b7100000000000000000000000000000000000000000000000000000000600052602260045260246000fd5b600060028204905060018216806200021a57607f821691505b60208210810362000230576200022f620001d2565b5b50919050565b60008190508160005260206000209050919050565b60006020601f8301049050919050565b600082821b905092915050565b6000600883026200029a7fffffffffffffffffffffffffffffffffffffffffffffffffffffffffffffffff826200025b565b620002a686836200025b565b95508019841693508086168417925050509392505050565b6000819050919050565b6000819050919050565b6000620002f3620002ed620002e784620002be565b620002c8565b620002be565b9050919050565b6000819050919050565b6200030f83620002d2565b620003276200031e82620002fa565b84845462000268565b825550505050565b600090565b6200033e6200032f565b6200034b81848462000304565b505050565b5b8181101562000373576200036760008262000334565b60018101905062000351565b5050565b601f821115620003c2576200038c8162000236565b62000397846200024b565b81016020851015620003a7578190505b620003bf620003b6856200024b565b83018262000350565b50505b505050565b600082821c905092915050565b6000620003e760001984600802620003c7565b1980831691505092915050565b6000620004028383620003d4565b9150826002028217905092915050565b6200041d8262000198565b67ffffffffffffffff811115620004395762000438620001a3565b5b62000445825462000201565b6200045282828562000377565b600060209050601f8311600181146200048a576000841562000475578287015190505b620004818582620003f4565b865550620004f1565b601f1984166200049a8662000236565b60005b82811015620004c4578489015182556001820191506020850194506020810190506200049d565b86831015620004e45784890151620004e0601f891682620003d4565b8355505b6001600288020188555050505b505050505050565b614b6780620005096000396000f3fe6080604052600436106101ee5760003560e01c806370a082311161010d578063a9059cbb116100a0578063d9a9cd431161006f578063d9a9cd431461079b578063dd62ed3e146107c4578063ebf9aa9214610801578063f2fde38b14610841578063f7b108081461086a576101ee565b8063a9059cbb146106da578063ad834ff014610717578063c361a33514610754578063d2bcdc601461077f576101ee565b80638da5cb5b116100dc5780638da5cb5b1461060957806395d89b411461063457806397adba801461065f578063a457c2d71461069d576101ee565b806370a082311461053b578063715018a6146105785780637c7198cc1461058f5780638a5025a7146105cc576101ee565b80633243c791116101855780634909f98b116101545780634909f98b146104805780634d3820eb146104a957806356a79e91146104c05780635f08f17a146104fe576101ee565b80633243c791146103a657806332665ffb146103c257806338667c5f146104065780633950935114610443576101ee565b8063163f7522116101c1578063163f7522146102d657806318160ddd1461031357806323b872dd1461033e578063313ce5671461037b576101ee565b806306bcd61e146101f357806306fdde0314610231578063095ea7b31461025c5780630e50cee514610299575b600080fd5b3480156101ff57600080fd5b5061021a60048036038101906102159190612edc565b6108b0565b604051610228929190612f18565b60405180910390f35b34801561023d57600080fd5b50610246610907565b6040516102539190612fd1565b60405180910390f35b34801561026857600080fd5b50610283600480360381019061027e9190613051565b610999565b60405161029091906130ac565b60405180910390f35b3480156102a557600080fd5b506102c060048036038101906102bb91906130c7565b6109bc565b6040516102cd91906130ac565b60405180910390f35b3480156102e257600080fd5b506102fd60048036038101906102f891906130c7565b6109dc565b60405161030a91906130ac565b60405180910390f35b34801561031f57600080fd5b50610328610a32565b60405161033591906130f4565b60405180910390f35b34801561034a57600080fd5b506103656004803603810190610360919061310f565b610a3c565b60405161037291906130ac565b60405180910390f35b34801561038757600080fd5b50610390610a6b565b60405161039d919061317e565b60405180910390f35b6103c060048036038101906103bb9190612edc565b610a74565b005b3480156103ce57600080fd5b506103e960048036038101906103e49190612edc565b610f1a565b6040516103fd9897969594939291906131a8565b60405180910390f35b34801561041257600080fd5b5061042d60048036038101906104289190613234565b6110c4565b60405161043a91906130f4565b60405180910390f35b34801561044f57600080fd5b5061046a60048036038101906104659190613051565b6110e9565b60405161047791906130ac565b60405180910390f35b34801561048c57600080fd5b506104a760048036038101906104a291906133d5565b611120565b005b3480156104b557600080fd5b506104be611594565b005b3480156104cc57600080fd5b506104e760048036038101906104e29190612edc565b6116b2565b6040516104f59291906135c0565b60405180910390f35b34801561050a57600080fd5b5061052560048036038101906105209190613234565b6118cb565b60405161053291906130ac565b60405180910390f35b34801561054757600080fd5b50610562600480360381019061055d91906130c7565b611933565b60405161056f91906130f4565b60405180910390f35b34801561058457600080fd5b5061058d61197b565b005b34801561059b57600080fd5b506105b660048036038101906105b19190613234565b61198f565b6040516105c391906130ac565b60405180910390f35b3480156105d857600080fd5b506105f360048036038101906105ee9190613234565b6119be565b60405161060091906130f4565b60405180910390f35b34801561061557600080fd5b5061061e611a19565b60405161062b91906135f7565b60405180910390f35b34801561064057600080fd5b50610649611a43565b6040516106569190612fd1565b60405180910390f35b34801561066b57600080fd5b5061068660048036038101906106819190613234565b611ad5565b604051610694929190613612565b60405180910390f35b3480156106a957600080fd5b506106c460048036038101906106bf9190613051565b611b92565b6040516106d191906130ac565b60405180910390f35b3480156106e657600080fd5b5061070160048036038101906106fc9190613051565b611c09565b60405161070e91906130ac565b60405180910390f35b34801561072357600080fd5b5061073e60048036038101906107399190612edc565b611c2c565b60405161074b91906137b9565b60405180910390f35b34801561076057600080fd5b50610769611dad565b60405161077691906130f4565b60405180910390f35b610799600480360381019061079491906137db565b611db3565b005b3480156107a757600080fd5b506107c260048036038101906107bd919061381b565b61214b565b005b3480156107d057600080fd5b506107eb60048036038101906107e691906138ce565b61237e565b6040516107f891906130f4565b60405180910390f35b34801561080d57600080fd5b50610828600480360381019061082391906137db565b612405565b604051610838949392919061390e565b60405180910390f35b34801561084d57600080fd5b50610868600480360381019061086391906130c7565b612507565b005b34801561087657600080fd5b50610891600480360381019061088c9190612edc565b61258a565b6040516108a79a9998979695949392919061395a565b60405180910390f35b600080600060066000858152602001908152602001600020905060008160080154036108e3576000809250925050610902565b806008015481600701546108f79190613a62565b816008015492509250505b915091565b60606003805461091690613ac2565b80601f016020809104026020016040519081016040528092919081815260200182805461094290613ac2565b801561098f5780601f106109645761010080835404028352916020019161098f565b820191906000526020600020905b81548152906001019060200180831161097257829003601f168201915b5050505050905090565b6000806109a461271b565b90506109b1818585612723565b600191505092915050565b60076020528060005260406000206000915054906101000a900460ff1681565b6000600760008373ffffffffffffffffffffffffffffffffffffffff1673ffffffffffffffffffffffffffffffffffffffff16815260200190815260200160002060009054906101000a900460ff169050919050565b6000600254905090565b600080610a4761271b565b9050610a548582856128ec565b610a5f858585612978565b60019150509392505050565b60006012905090565b6006600082815260200190815260200160002060060160019054906101000a900473ffffffffffffffffffffffffffffffffffffffff1673ffffffffffffffffffffffffffffffffffffffff163373ffffffffffffffffffffffffffffffffffffffff1614610b18576040517f08c379a0000000000000000000000000000000000000000000000000000000008152600401610b0f90613b65565b60405180910390fd5b60003411610b5b576040517f08c379a0000000000000000000000000000000000000000000000000000000008152600401610b5290613bd1565b60405180910390fd5b6000600660008381526020019081526020016000209050600081600401548260030154610b889190613bf1565b905060008111610bcd576040517f08c379a0000000000000000000000000000000000000000000000000000000008152600401610bc490613c97565b60405180910390fd5b60008134610bdb9190613a62565b905060003490506000600c600087815260200190815260200160002090506000818054905011610c40576040517f08c379a0000000000000000000000000000000000000000000000000000000008152600401610c3790613d03565b60405180910390fd5b60005b8180549050811015610e22576000828281548110610c6457610c63613d23565b5b9060005260206000200160009054906101000a900473ffffffffffffffffffffffffffffffffffffffff1690506000600860008a815260200190815260200160002060008373ffffffffffffffffffffffffffffffffffffffff1673ffffffffffffffffffffffffffffffffffffffff1681526020019081526020016000205490506000811115610e0d5760008682610cfd9190613d52565b90508086610d0b9190613bf1565b955060008373ffffffffffffffffffffffffffffffffffffffff1682604051610d3390613dc5565b60006040518083038185875af1925050503d8060008114610d70576040519150601f19603f3d011682016040523d82523d6000602084013e610d75565b606091505b5050905080610db9576040517f08c379a0000000000000000000000000000000000000000000000000000000008152600401610db090613e26565b60405180910390fd5b8373ffffffffffffffffffffffffffffffffffffffff168b7f2040f3536a69a9108c635e76191a93a9e79da4e390f598477872aad31a75197f8585604051610e02929190612f18565b60405180910390a350505b50508080610e1a90613e46565b915050610c43565b506000821115610eda5760003373ffffffffffffffffffffffffffffffffffffffff1683604051610e5290613dc5565b60006040518083038185875af1925050503d8060008114610e8f576040519150601f19603f3d011682016040523d82523d6000602084013e610e94565b606091505b5050905080610ed8576040517f08c379a0000000000000000000000000000000000000000000000000000000008152600401610ecf90613f00565b60405180910390fd5b505b857f2f588cf4bb0247b0f3f60e06187f92e6fd1deaabb56e2bcc567235233787132734604051610f0a91906130f4565b60405180910390a2505050505050565b6060806000806000806000806000600660008b81526020019081526020016000209050806000018160010182600201548360030154846004015485600501548660060160009054906101000a900460ff168760060160019054906101000a900473ffffffffffffffffffffffffffffffffffffffff16878054610f9c90613ac2565b80601f0160208091040260200160405190810160405280929190818152602001828054610fc890613ac2565b80156110155780601f10610fea57610100808354040283529160200191611015565b820191906000526020600020905b815481529060010190602001808311610ff857829003601f168201915b5050505050975086805461102890613ac2565b80601f016020809104026020016040519081016040528092919081815260200182805461105490613ac2565b80156110a15780601f10611076576101008083540402835291602001916110a1565b820191906000526020600020905b81548152906001019060200180831161108457829003601f168201915b505050505096509850985098509850985098509850985050919395975091939597565b6008602052816000526040600020602052806000526040600020600091509150505481565b6000806110f461271b565b9050611115818585611106858961237e565b6111109190613f20565b612723565b600191505092915050565b600760003373ffffffffffffffffffffffffffffffffffffffff1673ffffffffffffffffffffffffffffffffffffffff16815260200190815260200160002060009054906101000a900460ff166111ac576040517f08c379a00000000000000000000000000000000000000000000000000000000081526004016111a390613fa0565b60405180910390fd5b60006008600085815260200190815260200160002060003373ffffffffffffffffffffffffffffffffffffffff1673ffffffffffffffffffffffffffffffffffffffff168152602001908152602001600020541161123f576040517f08c379a00000000000000000000000000000000000000000000000000000000081526004016112369061400c565b60405180910390fd5b60018260ff1610158015611257575060058260ff1611155b611296576040517f08c379a000000000000000000000000000000000000000000000000000000000815260040161128d90614078565b60405180910390fd5b600a600084815260200190815260200160002060003373ffffffffffffffffffffffffffffffffffffffff1673ffffffffffffffffffffffffffffffffffffffff16815260200190815260200160002060009054906101000a900460ff1615611334576040517f08c379a000000000000000000000000000000000000000000000000000000000815260040161132b9061410a565b60405180910390fd5b60006006600085815260200190815260200160002090508060060160009054906101000a900460ff1661139c576040517f08c379a000000000000000000000000000000000000000000000000000000000815260040161139390614176565b60405180910390fd5b6009600085815260200190815260200160002060405180608001604052803373ffffffffffffffffffffffffffffffffffffffff1681526020018560ff16815260200184815260200142815250908060018154018082558091505060019003906000526020600020906003020160009091909190915060008201518160000160006101000a81548173ffffffffffffffffffffffffffffffffffffffff021916908373ffffffffffffffffffffffffffffffffffffffff16021790555060208201518160000160146101000a81548160ff021916908360ff160217905550604082015181600101908161148f9190614342565b506060820151816002015550508260ff168160070160008282546114b39190613f20565b925050819055508060080160008154809291906114cf90613e46565b91905055506001600a600086815260200190815260200160002060003373ffffffffffffffffffffffffffffffffffffffff1673ffffffffffffffffffffffffffffffffffffffff16815260200190815260200160002060006101000a81548160ff0219169083151502179055503373ffffffffffffffffffffffffffffffffffffffff16847f4a7905ef60a1bc6706f11a56f05a4ebb480a37effdcaaba357946727b7aa07438585604051611586929190614414565b60405180910390a350505050565b600760003373ffffffffffffffffffffffffffffffffffffffff1673ffffffffffffffffffffffffffffffffffffffff16815260200190815260200160002060009054906101000a900460ff1615611621576040517f08c379a000000000000000000000000000000000000000000000000000000000815260040161161890614490565b60405180910390fd5b6001600760003373ffffffffffffffffffffffffffffffffffffffff1673ffffffffffffffffffffffffffffffffffffffff16815260200190815260200160002060006101000a81548160ff0219169083151502179055507f54db7a5cb4735e1aac1f53db512d3390390bb6637bd30ad4bf9fc98667d9b9b9336040516116a891906135f7565b60405180910390a1565b6060806000600c60008581526020019081526020016000209050808054905067ffffffffffffffff8111156116ea576116e96132aa565b5b6040519080825280602002602001820160405280156117185781602001602082028036833780820191505090505b509250808054905067ffffffffffffffff811115611739576117386132aa565b5b6040519080825280602002602001820160405280156117675781602001602082028036833780820191505090505b50915060005b81805490508110156118c45781818154811061178c5761178b613d23565b5b9060005260206000200160009054906101000a900473ffffffffffffffffffffffffffffffffffffffff168482815181106117ca576117c9613d23565b5b602002602001019073ffffffffffffffffffffffffffffffffffffffff16908173ffffffffffffffffffffffffffffffffffffffff168152505060086000868152602001908152602001600020600083838154811061182c5761182b613d23565b5b9060005260206000200160009054906101000a900473ffffffffffffffffffffffffffffffffffffffff1673ffffffffffffffffffffffffffffffffffffffff1673ffffffffffffffffffffffffffffffffffffffff168152602001908152602001600020548382815181106118a5576118a4613d23565b5b60200260200101818152505080806118bc90613e46565b91505061176d565b5050915091565b6000600d600084815260200190815260200160002060008373ffffffffffffffffffffffffffffffffffffffff1673ffffffffffffffffffffffffffffffffffffffff16815260200190815260200160002060009054906101000a900460ff16905092915050565b60008060008373ffffffffffffffffffffffffffffffffffffffff1673ffffffffffffffffffffffffffffffffffffffff168152602001908152602001600020549050919050565b611983612bee565b61198d6000612c6c565b565b600a6020528160005260406000206020528060005260406000206000915091509054906101000a900460ff1681565b60006008600084815260200190815260200160002060008373ffffffffffffffffffffffffffffffffffffffff1673ffffffffffffffffffffffffffffffffffffffff16815260200190815260200160002054905092915050565b6000600560009054906101000a900473ffffffffffffffffffffffffffffffffffffffff16905090565b606060048054611a5290613ac2565b80601f0160208091040260200160405190810160405280929190818152602001828054611a7e90613ac2565b8015611acb5780601f10611aa057610100808354040283529160200191611acb565b820191906000526020600020905b815481529060010190602001808311611aae57829003601f168201915b5050505050905090565b6000806008600085815260200190815260200160002060008473ffffffffffffffffffffffffffffffffffffffff1673ffffffffffffffffffffffffffffffffffffffff16815260200190815260200160002054600d600086815260200190815260200160002060008573ffffffffffffffffffffffffffffffffffffffff1673ffffffffffffffffffffffffffffffffffffffff16815260200190815260200160002060009054906101000a900460ff16915091509250929050565b600080611b9d61271b565b90506000611bab828661237e565b905083811015611bf0576040517f08c379a0000000000000000000000000000000000000000000000000000000008152600401611be790614522565b60405180910390fd5b611bfd8286868403612723565b60019250505092915050565b600080611c1461271b565b9050611c21818585612978565b600191505092915050565b606060096000838152602001908152602001600020805480602002602001604051908101604052809291908181526020016000905b82821015611da257838290600052602060002090600302016040518060800160405290816000820160009054906101000a900473ffffffffffffffffffffffffffffffffffffffff1673ffffffffffffffffffffffffffffffffffffffff1673ffffffffffffffffffffffffffffffffffffffff1681526020016000820160149054906101000a900460ff1660ff1660ff168152602001600182018054611d0790613ac2565b80601f0160208091040260200160405190810160405280929190818152602001828054611d3390613ac2565b8015611d805780601f10611d5557610100808354040283529160200191611d80565b820191906000526020600020905b815481529060010190602001808311611d6357829003601f168201915b5050505050815260200160028201548152505081526020019060010190611c61565b505050509050919050565b600b5481565b600760003373ffffffffffffffffffffffffffffffffffffffff1673ffffffffffffffffffffffffffffffffffffffff16815260200190815260200160002060009054906101000a900460ff16611e3f576040517f08c379a0000000000000000000000000000000000000000000000000000000008152600401611e3690613fa0565b60405180910390fd5b60006006600084815260200190815260200160002090508060060160009054906101000a900460ff16611ea7576040517f08c379a0000000000000000000000000000000000000000000000000000000008152600401611e9e90614176565b60405180910390fd5b8181600401541015611eee576040517f08c379a0000000000000000000000000000000000000000000000000000000008152600401611ee59061458e565b60405180910390fd5b818160050154611efe9190613d52565b341015611f40576040517f08c379a0000000000000000000000000000000000000000000000000000000008152600401611f37906145fa565b60405180910390fd5b81816004016000828254611f549190613bf1565b92505081905550816008600085815260200190815260200160002060003373ffffffffffffffffffffffffffffffffffffffff1673ffffffffffffffffffffffffffffffffffffffff1681526020019081526020016000206000828254611fbb9190613f20565b92505081905550600d600084815260200190815260200160002060003373ffffffffffffffffffffffffffffffffffffffff1673ffffffffffffffffffffffffffffffffffffffff16815260200190815260200160002060009054906101000a900460ff1661210257600c6000848152602001908152602001600020339080600181540180825580915050600190039060005260206000200160009091909190916101000a81548173ffffffffffffffffffffffffffffffffffffffff021916908373ffffffffffffffffffffffffffffffffffffffff1602179055506001600d600085815260200190815260200160002060003373ffffffffffffffffffffffffffffffffffffffff1673ffffffffffffffffffffffffffffffffffffffff16815260200190815260200160002060006101000a81548160ff0219169083151502179055505b61210c3383612d32565b827fd4a7a37d339805413b4085e0f8e0932dfb0a4f84f08f98a6e53673b5ee8eee15338460405161213e92919061461a565b60405180910390a2505050565b600760003373ffffffffffffffffffffffffffffffffffffffff1673ffffffffffffffffffffffffffffffffffffffff16815260200190815260200160002060009054906101000a900460ff166121d7576040517f08c379a00000000000000000000000000000000000000000000000000000000081526004016121ce90613fa0565b60405180910390fd5b600b60008154809291906121ea90613e46565b91905055506040518061014001604052808681526020018581526020018481526020018381526020018381526020018281526020016001151581526020013373ffffffffffffffffffffffffffffffffffffffff16815260200160008152602001600081525060066000600b548152602001908152602001600020600082015181600001908161227a9190614342565b5060208201518160010190816122909190614342565b5060408201518160020155606082015181600301556080820151816004015560a0820151816005015560c08201518160060160006101000a81548160ff02191690831515021790555060e08201518160060160016101000a81548173ffffffffffffffffffffffffffffffffffffffff021916908373ffffffffffffffffffffffffffffffffffffffff16021790555061010082015181600701556101208201518160080155905050600b547f0b73a41b9a53f85c04cbbffd24982e464f740bfbe528209ac16aedac77c00c6786848460405161236f93929190614643565b60405180910390a25050505050565b6000600160008473ffffffffffffffffffffffffffffffffffffffff1673ffffffffffffffffffffffffffffffffffffffff16815260200190815260200160002060008373ffffffffffffffffffffffffffffffffffffffff1673ffffffffffffffffffffffffffffffffffffffff16815260200190815260200160002054905092915050565b6009602052816000526040600020818154811061242157600080fd5b9060005260206000209060030201600091509150508060000160009054906101000a900473ffffffffffffffffffffffffffffffffffffffff16908060000160149054906101000a900460ff169080600101805461247e90613ac2565b80601f01602080910402602001604051908101604052809291908181526020018280546124aa90613ac2565b80156124f75780601f106124cc576101008083540402835291602001916124f7565b820191906000526020600020905b8154815290600101906020018083116124da57829003601f168201915b5050505050908060020154905084565b61250f612bee565b600073ffffffffffffffffffffffffffffffffffffffff168173ffffffffffffffffffffffffffffffffffffffff160361257e576040517f08c379a0000000000000000000000000000000000000000000000000000000008152600401612575906146f3565b60405180910390fd5b61258781612c6c565b50565b60066020528060005260406000206000915090508060000180546125ad90613ac2565b80601f01602080910402602001604051908101604052809291908181526020018280546125d990613ac2565b80156126265780601f106125fb57610100808354040283529160200191612626565b820191906000526020600020905b81548152906001019060200180831161260957829003601f168201915b50505050509080600101805461263b90613ac2565b80601f016020809104026020016040519081016040528092919081815260200182805461266790613ac2565b80156126b45780601f10612689576101008083540402835291602001916126b4565b820191906000526020600020905b81548152906001019060200180831161269757829003601f168201915b5050505050908060020154908060030154908060040154908060050154908060060160009054906101000a900460ff16908060060160019054906101000a900473ffffffffffffffffffffffffffffffffffffffff1690806007015490806008015490508a565b600033905090565b600073ffffffffffffffffffffffffffffffffffffffff168373ffffffffffffffffffffffffffffffffffffffff1603612792576040517f08c379a000000000000000000000000000000000000000000000000000000000815260040161278990614785565b60405180910390fd5b600073ffffffffffffffffffffffffffffffffffffffff168273ffffffffffffffffffffffffffffffffffffffff1603612801576040517f08c379a00000000000000000000000000000000000000000000000000000000081526004016127f890614817565b60405180910390fd5b80600160008573ffffffffffffffffffffffffffffffffffffffff1673ffffffffffffffffffffffffffffffffffffffff16815260200190815260200160002060008473ffffffffffffffffffffffffffffffffffffffff1673ffffffffffffffffffffffffffffffffffffffff168152602001908152602001600020819055508173ffffffffffffffffffffffffffffffffffffffff168373ffffffffffffffffffffffffffffffffffffffff167f8c5be1e5ebec7d5bd14f71427d1e84f3dd0314c0f7b2291e5b200ac8c7c3b925836040516128df91906130f4565b60405180910390a3505050565b60006128f8848461237e565b90507fffffffffffffffffffffffffffffffffffffffffffffffffffffffffffffffff81146129725781811015612964576040517f08c379a000000000000000000000000000000000000000000000000000000000815260040161295b90614883565b60405180910390fd5b6129718484848403612723565b5b50505050565b600073ffffffffffffffffffffffffffffffffffffffff168373ffffffffffffffffffffffffffffffffffffffff16036129e7576040517f08c379a00000000000000000000000000000000000000000000000000000000081526004016129de90614915565b60405180910390fd5b600073ffffffffffffffffffffffffffffffffffffffff168273ffffffffffffffffffffffffffffffffffffffff1603612a56576040517f08c379a0000000000000000000000000000000000000000000000000000000008152600401612a4d906149a7565b60405180910390fd5b612a61838383612e88565b60008060008573ffffffffffffffffffffffffffffffffffffffff1673ffffffffffffffffffffffffffffffffffffffff16815260200190815260200160002054905081811015612ae7576040517f08c379a0000000000000000000000000000000000000000000000000000000008152600401612ade90614a39565b60405180910390fd5b8181036000808673ffffffffffffffffffffffffffffffffffffffff1673ffffffffffffffffffffffffffffffffffffffff16815260200190815260200160002081905550816000808573ffffffffffffffffffffffffffffffffffffffff1673ffffffffffffffffffffffffffffffffffffffff168152602001908152602001600020600082825401925050819055508273ffffffffffffffffffffffffffffffffffffffff168473ffffffffffffffffffffffffffffffffffffffff167fddf252ad1be2c89b69c2b068fc378daa952ba7f163c4a11628f55a4df523b3ef84604051612bd591906130f4565b60405180910390a3612be8848484612e8d565b50505050565b612bf661271b565b73ffffffffffffffffffffffffffffffffffffffff16612c14611a19565b73ffffffffffffffffffffffffffffffffffffffff1614612c6a576040517f08c379a0000000000000000000000000000000000000000000000000000000008152600401612c6190614aa5565b60405180910390fd5b565b6000600560009054906101000a900473ffffffffffffffffffffffffffffffffffffffff16905081600560006101000a81548173ffffffffffffffffffffffffffffffffffffffff021916908373ffffffffffffffffffffffffffffffffffffffff1602179055508173ffffffffffffffffffffffffffffffffffffffff168173ffffffffffffffffffffffffffffffffffffffff167f8be0079c531659141344cd1fd0a4f28419497f9722a3daafe3b4186f6b6457e060405160405180910390a35050565b600073ffffffffffffffffffffffffffffffffffffffff168273ffffffffffffffffffffffffffffffffffffffff1603612da1576040517f08c379a0000000000000000000000000000000000000000000000000000000008152600401612d9890614b11565b60405180910390fd5b612dad60008383612e88565b8060026000828254612dbf9190613f20565b92505081905550806000808473ffffffffffffffffffffffffffffffffffffffff1673ffffffffffffffffffffffffffffffffffffffff168152602001908152602001600020600082825401925050819055508173ffffffffffffffffffffffffffffffffffffffff16600073ffffffffffffffffffffffffffffffffffffffff167fddf252ad1be2c89b69c2b068fc378daa952ba7f163c4a11628f55a4df523b3ef83604051612e7091906130f4565b60405180910390a3612e8460008383612e8d565b5050565b505050565b505050565b6000604051905090565b600080fd5b600080fd5b6000819050919050565b612eb981612ea6565b8114612ec457600080fd5b50565b600081359050612ed681612eb0565b92915050565b600060208284031215612ef257612ef1612e9c565b5b6000612f0084828501612ec7565b91505092915050565b612f1281612ea6565b82525050565b6000604082019050612f2d6000830185612f09565b612f3a6020830184612f09565b9392505050565b600081519050919050565b600082825260208201905092915050565b60005b83811015612f7b578082015181840152602081019050612f60565b60008484015250505050565b6000601f19601f8301169050919050565b6000612fa382612f41565b612fad8185612f4c565b9350612fbd818560208601612f5d565b612fc681612f87565b840191505092915050565b60006020820190508181036000830152612feb8184612f98565b905092915050565b600073ffffffffffffffffffffffffffffffffffffffff82169050919050565b600061301e82612ff3565b9050919050565b61302e81613013565b811461303957600080fd5b50565b60008135905061304b81613025565b92915050565b6000806040838503121561306857613067612e9c565b5b60006130768582860161303c565b925050602061308785828601612ec7565b9150509250929050565b60008115159050919050565b6130a681613091565b82525050565b60006020820190506130c1600083018461309d565b92915050565b6000602082840312156130dd576130dc612e9c565b5b60006130eb8482850161303c565b91505092915050565b60006020820190506131096000830184612f09565b92915050565b60008060006060848603121561312857613127612e9c565b5b60006131368682870161303c565b93505060206131478682870161303c565b925050604061315886828701612ec7565b9150509250925092565b600060ff82169050919050565b61317881613162565b82525050565b6000602082019050613193600083018461316f565b92915050565b6131a281613013565b82525050565b60006101008201905081810360008301526131c3818b612f98565b905081810360208301526131d7818a612f98565b90506131e66040830189612f09565b6131f36060830188612f09565b6132006080830187612f09565b61320d60a0830186612f09565b61321a60c083018561309d565b61322760e0830184613199565b9998505050505050505050565b6000806040838503121561324b5761324a612e9c565b5b600061325985828601612ec7565b925050602061326a8582860161303c565b9150509250929050565b61327d81613162565b811461328857600080fd5b50565b60008135905061329a81613274565b92915050565b600080fd5b600080fd5b7f4e487b7100000000000000000000000000000000000000000000000000000000600052604160045260246000fd5b6132e282612f87565b810181811067ffffffffffffffff82111715613301576133006132aa565b5b80604052505050565b6000613314612e92565b905061332082826132d9565b919050565b600067ffffffffffffffff8211156133405761333f6132aa565b5b61334982612f87565b9050602081019050919050565b82818337600083830152505050565b600061337861337384613325565b61330a565b905082815260208101848484011115613394576133936132a5565b5b61339f848285613356565b509392505050565b600082601f8301126133bc576133bb6132a0565b5b81356133cc848260208601613365565b91505092915050565b6000806000606084860312156133ee576133ed612e9c565b5b60006133fc86828701612ec7565b935050602061340d8682870161328b565b925050604084013567ffffffffffffffff81111561342e5761342d612ea1565b5b61343a868287016133a7565b9150509250925092565b600081519050919050565b600082825260208201905092915050565b6000819050602082019050919050565b61347981613013565b82525050565b600061348b8383613470565b60208301905092915050565b6000602082019050919050565b60006134af82613444565b6134b9818561344f565b93506134c483613460565b8060005b838110156134f55781516134dc888261347f565b97506134e783613497565b9250506001810190506134c8565b5085935050505092915050565b600081519050919050565b600082825260208201905092915050565b6000819050602082019050919050565b61353781612ea6565b82525050565b6000613549838361352e565b60208301905092915050565b6000602082019050919050565b600061356d82613502565b613577818561350d565b93506135828361351e565b8060005b838110156135b357815161359a888261353d565b97506135a583613555565b925050600181019050613586565b5085935050505092915050565b600060408201905081810360008301526135da81856134a4565b905081810360208301526135ee8184613562565b90509392505050565b600060208201905061360c6000830184613199565b92915050565b60006040820190506136276000830185612f09565b613634602083018461309d565b9392505050565b600081519050919050565b600082825260208201905092915050565b6000819050602082019050919050565b61367081613162565b82525050565b600082825260208201905092915050565b600061369282612f41565b61369c8185613676565b93506136ac818560208601612f5d565b6136b581612f87565b840191505092915050565b60006080830160008301516136d86000860182613470565b5060208301516136eb6020860182613667565b50604083015184820360408601526137038282613687565b9150506060830151613718606086018261352e565b508091505092915050565b600061372f83836136c0565b905092915050565b6000602082019050919050565b600061374f8261363b565b6137598185613646565b93508360208202850161376b85613657565b8060005b858110156137a757848403895281516137888582613723565b945061379383613737565b925060208a0199505060018101905061376f565b50829750879550505050505092915050565b600060208201905081810360008301526137d38184613744565b905092915050565b600080604083850312156137f2576137f1612e9c565b5b600061380085828601612ec7565b925050602061381185828601612ec7565b9150509250929050565b600080600080600060a0868803121561383757613836612e9c565b5b600086013567ffffffffffffffff81111561385557613854612ea1565b5b613861888289016133a7565b955050602086013567ffffffffffffffff81111561388257613881612ea1565b5b61388e888289016133a7565b945050604061389f88828901612ec7565b93505060606138b088828901612ec7565b92505060806138c188828901612ec7565b9150509295509295909350565b600080604083850312156138e5576138e4612e9c565b5b60006138f38582860161303c565b92505060206139048582860161303c565b9150509250929050565b60006080820190506139236000830187613199565b613930602083018661316f565b81810360408301526139428185612f98565b90506139516060830184612f09565b95945050505050565b6000610140820190508181036000830152613975818d612f98565b90508181036020830152613989818c612f98565b9050613998604083018b612f09565b6139a5606083018a612f09565b6139b26080830189612f09565b6139bf60a0830188612f09565b6139cc60c083018761309d565b6139d960e0830186613199565b6139e7610100830185612f09565b6139f5610120830184612f09565b9b9a5050505050505050505050565b7f4e487b7100000000000000000000000000000000000000000000000000000000600052601260045260246000fd5b7f4e487b7100000000000000000000000000000000000000000000000000000000600052601160045260246000fd5b6000613a6d82612ea6565b9150613a7883612ea6565b925082613a8857613a87613a04565b5b828204905092915050565b7f4e487b7100000000000000000000000000000000000000000000000000000000600052602260045260246000fd5b60006002820490506001821680613ada57607f821691505b602082108103613aed57613aec613a93565b5b50919050565b7f4f6e6c792070726f7065727479206f776e65722063616e20646973747269627560008201527f7465206469766964656e64730000000000000000000000000000000000000000602082015250565b6000613b4f602c83612f4c565b9150613b5a82613af3565b604082019050919050565b60006020820190508181036000830152613b7e81613b42565b9050919050565b7f4d7573742073656e642045544820666f72206469766964656e64730000000000600082015250565b6000613bbb601b83612f4c565b9150613bc682613b85565b602082019050919050565b60006020820190508181036000830152613bea81613bae565b9050919050565b6000613bfc82612ea6565b9150613c0783612ea6565b9250828203905081811115613c1f57613c1e613a33565b5b92915050565b7f4e6f207368617265732068617665206265656e2070757263686173656420796560008201527f7400000000000000000000000000000000000000000000000000000000000000602082015250565b6000613c81602183612f4c565b9150613c8c82613c25565b604082019050919050565b60006020820190508181036000830152613cb081613c74565b9050919050565b7f4e6f207368617265686f6c6465727320666f756e640000000000000000000000600082015250565b6000613ced601583612f4c565b9150613cf882613cb7565b602082019050919050565b60006020820190508181036000830152613d1c81613ce0565b9050919050565b7f4e487b7100000000000000000000000000000000000000000000000000000000600052603260045260246000fd5b6000613d5d82612ea6565b9150613d6883612ea6565b9250828202613d7681612ea6565b91508282048414831517613d8d57613d8c613a33565b5b5092915050565b600081905092915050565b50565b6000613daf600083613d94565b9150613dba82613d9f565b600082019050919050565b6000613dd082613da2565b9150819050919050565b7f4661696c656420746f2073656e64206469766964656e64000000000000000000600082015250565b6000613e10601783612f4c565b9150613e1b82613dda565b602082019050919050565b60006020820190508181036000830152613e3f81613e03565b9050919050565b6000613e5182612ea6565b91507fffffffffffffffffffffffffffffffffffffffffffffffffffffffffffffffff8203613e8357613e82613a33565b5b600182019050919050565b7f4661696c656420746f2072657475726e2072656d61696e696e6720616d6f756e60008201527f7400000000000000000000000000000000000000000000000000000000000000602082015250565b6000613eea602183612f4c565b9150613ef582613e8e565b604082019050919050565b60006020820190508181036000830152613f1981613edd565b9050919050565b6000613f2b82612ea6565b9150613f3683612ea6565b9250828201905080821115613f4e57613f4d613a33565b5b92915050565b7f55736572206e6f74207265676973746572656400000000000000000000000000600082015250565b6000613f8a601383612f4c565b9150613f9582613f54565b602082019050919050565b60006020820190508181036000830152613fb981613f7d565b9050919050565b7f4f6e6c79207368617265686f6c646572732063616e2072657669657700000000600082015250565b6000613ff6601c83612f4c565b915061400182613fc0565b602082019050919050565b6000602082019050818103600083015261402581613fe9565b9050919050565b7f526174696e67206d757374206265206265747765656e203120616e6420350000600082015250565b6000614062601e83612f4c565b915061406d8261402c565b602082019050919050565b6000602082019050818103600083015261409181614055565b9050919050565b7f557365722068617320616c72656164792072657669657765642074686973207060008201527f726f706572747900000000000000000000000000000000000000000000000000602082015250565b60006140f4602783612f4c565b91506140ff82614098565b604082019050919050565b60006020820190508181036000830152614123816140e7565b9050919050565b7f50726f7065727479206e6f74206c697374656400000000000000000000000000600082015250565b6000614160601383612f4c565b915061416b8261412a565b602082019050919050565b6000602082019050818103600083015261418f81614153565b9050919050565b60008190508160005260206000209050919050565b60006020601f8301049050919050565b600082821b905092915050565b6000600883026141f87fffffffffffffffffffffffffffffffffffffffffffffffffffffffffffffffff826141bb565b61420286836141bb565b95508019841693508086168417925050509392505050565b6000819050919050565b600061423f61423a61423584612ea6565b61421a565b612ea6565b9050919050565b6000819050919050565b61425983614224565b61426d61426582614246565b8484546141c8565b825550505050565b600090565b614282614275565b61428d818484614250565b505050565b5b818110156142b1576142a660008261427a565b600181019050614293565b5050565b601f8211156142f6576142c781614196565b6142d0846141ab565b810160208510156142df578190505b6142f36142eb856141ab565b830182614292565b50505b505050565b600082821c905092915050565b6000614319600019846008026142fb565b1980831691505092915050565b60006143328383614308565b9150826002028217905092915050565b61434b82612f41565b67ffffffffffffffff811115614364576143636132aa565b5b61436e8254613ac2565b6143798282856142b5565b600060209050601f8311600181146143ac576000841561439a578287015190505b6143a48582614326565b86555061440c565b601f1984166143ba86614196565b60005b828110156143e2578489015182556001820191506020850194506020810190506143bd565b868310156143ff57848901516143fb601f891682614308565b8355505b6001600288020188555050505b505050505050565b6000604082019050614429600083018561316f565b818103602083015261443b8184612f98565b90509392505050565b7f5573657220616c72656164792072656769737465726564000000000000000000600082015250565b600061447a601783612f4c565b915061448582614444565b602082019050919050565b600060208201905081810360008301526144a98161446d565b9050919050565b7f45524332303a2064656372656173656420616c6c6f77616e63652062656c6f7760008201527f207a65726f000000000000000000000000000000000000000000000000000000602082015250565b600061450c602583612f4c565b9150614517826144b0565b604082019050919050565b6000602082019050818103600083015261453b816144ff565b9050919050565b7f4e6f7420656e6f7567682073686172657320617661696c61626c650000000000600082015250565b6000614578601b83612f4c565b915061458382614542565b602082019050919050565b600060208201905081810360008301526145a78161456b565b9050919050565b7f496e73756666696369656e74207061796d656e74000000000000000000000000600082015250565b60006145e4601483612f4c565b91506145ef826145ae565b602082019050919050565b60006020820190508181036000830152614613816145d7565b9050919050565b600060408201905061462f6000830185613199565b61463c6020830184612f09565b9392505050565b6000606082019050818103600083015261465d8186612f98565b905061466c6020830185612f09565b6146796040830184612f09565b949350505050565b7f4f776e61626c653a206e6577206f776e657220697320746865207a65726f206160008201527f6464726573730000000000000000000000000000000000000000000000000000602082015250565b60006146dd602683612f4c565b91506146e882614681565b604082019050919050565b6000602082019050818103600083015261470c816146d0565b9050919050565b7f45524332303a20617070726f76652066726f6d20746865207a65726f2061646460008201527f7265737300000000000000000000000000000000000000000000000000000000602082015250565b600061476f602483612f4c565b915061477a82614713565b604082019050919050565b6000602082019050818103600083015261479e81614762565b9050919050565b7f45524332303a20617070726f766520746f20746865207a65726f20616464726560008201527f7373000000000000000000000000000000000000000000000000000000000000602082015250565b6000614801602283612f4c565b915061480c826147a5565b604082019050919050565b60006020820190508181036000830152614830816147f4565b9050919050565b7f45524332303a20696e73756666696369656e7420616c6c6f77616e6365000000600082015250565b600061486d601d83612f4c565b915061487882614837565b602082019050919050565b6000602082019050818103600083015261489c81614860565b9050919050565b7f45524332303a207472616e736665722066726f6d20746865207a65726f20616460008201527f6472657373000000000000000000000000000000000000000000000000000000602082015250565b60006148ff602583612f4c565b915061490a826148a3565b604082019050919050565b6000602082019050818103600083015261492e816148f2565b9050919050565b7f45524332303a207472616e7366657220746f20746865207a65726f206164647260008201527f6573730000000000000000000000000000000000000000000000000000000000602082015250565b6000614991602383612f4c565b915061499c82614935565b604082019050919050565b600060208201905081810360008301526149c081614984565b9050919050565b7f45524332303a207472616e7366657220616d6f756e742065786365656473206260008201527f616c616e63650000000000000000000000000000000000000000000000000000602082015250565b6000614a23602683612f4c565b9150614a2e826149c7565b604082019050919050565b60006020820190508181036000830152614a5281614a16565b9050919050565b7f4f776e61626c653a2063616c6c6572206973206e6f7420746865206f776e6572600082015250565b6000614a8f602083612f4c565b9150614a9a82614a59565b602082019050919050565b60006020820190508181036000830152614abe81614a82565b9050919050565b7f45524332303a206d696e7420746f20746865207a65726f206164647265737300600082015250565b6000614afb601f83612f4c565b9150614b0682614ac5565b602082019050919050565b60006020820190508181036000830152614b2a81614aee565b905091905056fea26469706673582212201e5e7443311050554e25c32edfdaa68fd09051e6594c16fb5d8d2959a19852a964736f6c63430008130033",
  "immutableReferences": {},
  "source": "//SPDX-License-Identifier: MIT\r\npragma solidity 0.8.19;\r\n\r\nimport \"@openzeppelin/contracts/token/ERC20/ERC20.sol\";\r\nimport \"@openzeppelin/contracts/access/Ownable.sol\";\r\n\r\ncontract RealEstate is ERC20, Ownable {\r\n    struct Review {\r\n        address reviewer;\r\n        uint8 rating;\r\n        string comment;\r\n        uint256 timestamp;\r\n    }\r\n\r\n    struct Property {\r\n        string name;\r\n        string location;\r\n        uint256 totalValue;\r\n        uint256 totalShares;\r\n        uint256 availableShares;\r\n        uint256 pricePerShare;\r\n        bool isListed;\r\n        address owner;\r\n        uint256 totalRating;\r\n        uint256 numberOfRatings;\r\n    }\r\n\r\n    mapping(uint256 => Property) public properties;\r\n    mapping(address => bool) public registeredUsers;\r\n    mapping(uint256 => mapping(address => uint256)) public propertyShares; // Track shares per property per user\r\n    mapping(uint256 => Review[]) public propertyReviews;\r\n    mapping(uint256 => mapping(address => bool)) public hasReviewed;\r\n    uint256 public propertyCount;\r\n    \r\n    // Add a new mapping to track shareholders for each property\r\n    mapping(uint256 => address[]) private propertyShareholderList;\r\n    mapping(uint256 => mapping(address => bool)) private isPropertyShareholder;\r\n\r\n    // Events\r\n    event PropertyListed(uint256 indexed propertyId, string name, uint256 totalShares, uint256 pricePerShare);\r\n    event SharesPurchased(uint256 indexed propertyId, address buyer, uint256 shares);\r\n    event UserRegistered(address user);\r\n    event DividendDistributed(uint256 indexed propertyId, uint256 amount);\r\n    event ReviewAdded(uint256 indexed propertyId, address indexed reviewer, uint8 rating, string comment);\r\n    event ShareholderDividendSent(\r\n        uint256 indexed propertyId,\r\n        address indexed shareholder,\r\n        uint256 shares,\r\n        uint256 dividendAmount\r\n    );\r\n    event DebugDividends(\r\n        uint256 propertyId,\r\n        uint256 totalShares,\r\n        uint256 dividendPerShare,\r\n        uint256 shareholderCount\r\n    );\r\n\r\n    constructor() ERC20(\"RealEstate Token\", \"REST\") {}\r\n\r\n    function registerUser() public {\r\n        require(!registeredUsers[msg.sender], \"User already registered\");\r\n        registeredUsers[msg.sender] = true;\r\n        emit UserRegistered(msg.sender);\r\n    }\r\n\r\n    function listProperty(\r\n        string memory _name,\r\n        string memory _location,\r\n        uint256 _totalValue,\r\n        uint256 _totalShares,\r\n        uint256 _pricePerShare\r\n    ) public {\r\n        require(registeredUsers[msg.sender], \"User not registered\");\r\n        \r\n        propertyCount++;\r\n        properties[propertyCount] = Property({\r\n            name: _name,\r\n            location: _location,\r\n            totalValue: _totalValue,\r\n            totalShares: _totalShares,\r\n            availableShares: _totalShares,\r\n            pricePerShare: _pricePerShare,\r\n            isListed: true,\r\n            owner: msg.sender,\r\n            totalRating: 0,\r\n            numberOfRatings: 0\r\n        });\r\n\r\n        emit PropertyListed(propertyCount, _name, _totalShares, _pricePerShare);\r\n    }\r\n\r\n    function purchaseShares(uint256 _propertyId, uint256 _shares) public payable {\r\n        require(registeredUsers[msg.sender], \"User not registered\");\r\n        Property storage property = properties[_propertyId];\r\n        require(property.isListed, \"Property not listed\");\r\n        require(property.availableShares >= _shares, \"Not enough shares available\");\r\n        require(msg.value >= property.pricePerShare * _shares, \"Insufficient payment\");\r\n\r\n        property.availableShares -= _shares;\r\n        propertyShares[_propertyId][msg.sender] += _shares;\r\n        \r\n        // Add to shareholders list if not already present\r\n        if (!isPropertyShareholder[_propertyId][msg.sender]) {\r\n            propertyShareholderList[_propertyId].push(msg.sender);\r\n            isPropertyShareholder[_propertyId][msg.sender] = true;\r\n        }\r\n        \r\n        _mint(msg.sender, _shares);\r\n\r\n        emit SharesPurchased(_propertyId, msg.sender, _shares);\r\n    }\r\n\r\n    function getPropertyShares(uint256 _propertyId, address _user) public view returns (uint256) {\r\n        return propertyShares[_propertyId][_user];\r\n    }\r\n\r\n    function distributeDividends(uint256 _propertyId) public payable {\r\n        require(msg.sender == properties[_propertyId].owner, \"Only property owner can distribute dividends\");\r\n        require(msg.value > 0, \"Must send ETH for dividends\");\r\n        \r\n        Property storage property = properties[_propertyId];\r\n        uint256 totalSoldShares = property.totalShares - property.availableShares;\r\n        require(totalSoldShares > 0, \"No shares have been purchased yet\");\r\n\r\n        // Calculate dividend per share (in wei)\r\n        uint256 dividendPerShare = msg.value / totalSoldShares;\r\n        uint256 remainingAmount = msg.value;\r\n\r\n        // Get list of shareholders\r\n        address[] storage shareholders = propertyShareholderList[_propertyId];\r\n        require(shareholders.length > 0, \"No shareholders found\");\r\n\r\n        // Distribute to all shareholders\r\n        for (uint256 i = 0; i < shareholders.length; i++) {\r\n            address shareholder = shareholders[i];\r\n            uint256 shares = propertyShares[_propertyId][shareholder];\r\n            \r\n            if (shares > 0) {\r\n                uint256 dividend = shares * dividendPerShare;\r\n                remainingAmount -= dividend;\r\n\r\n                // Transfer dividend to shareholder\r\n                (bool success, ) = payable(shareholder).call{value: dividend}(\"\");\r\n                require(success, \"Failed to send dividend\");\r\n\r\n                emit ShareholderDividendSent(_propertyId, shareholder, shares, dividend);\r\n            }\r\n        }\r\n\r\n        // Return any remaining dust amount to owner\r\n        if (remainingAmount > 0) {\r\n            (bool success, ) = payable(msg.sender).call{value: remainingAmount}(\"\");\r\n            require(success, \"Failed to return remaining amount\");\r\n        }\r\n\r\n        emit DividendDistributed(_propertyId, msg.value);\r\n    }\r\n\r\n    // Helper function to convert address to string for error messages\r\n    function addressToString(address _addr) internal pure returns (string memory) {\r\n        bytes32 value = bytes32(uint256(uint160(_addr)));\r\n        bytes memory alphabet = \"0123456789abcdef\";\r\n        bytes memory str = new bytes(42);\r\n        str[0] = \"0\";\r\n        str[1] = \"x\";\r\n        for (uint256 i = 0; i < 20; i++) {\r\n            str[2+i*2] = alphabet[uint8(value[i + 12] >> 4)];\r\n            str[3+i*2] = alphabet[uint8(value[i + 12] & 0x0f)];\r\n        }\r\n        return string(str);\r\n    }\r\n\r\n    // Add function to get shareholder details\r\n    function getShareholderDetails(uint256 _propertyId, address _shareholder) public view returns (\r\n        uint256 shares,\r\n        bool isShareholder\r\n    ) {\r\n        return (\r\n            propertyShares[_propertyId][_shareholder],\r\n            isPropertyShareholder[_propertyId][_shareholder]\r\n        );\r\n    }\r\n\r\n    function isUserRegistered(address _user) public view returns (bool) {\r\n        return registeredUsers[_user];\r\n    }\r\n\r\n    function getProperty(uint256 _propertyId) public view returns (\r\n        string memory name,\r\n        string memory location,\r\n        uint256 totalValue,\r\n        uint256 totalShares,\r\n        uint256 availableShares,\r\n        uint256 pricePerShare,\r\n        bool isListed,\r\n        address owner\r\n    ) {\r\n        Property storage property = properties[_propertyId];\r\n        return (\r\n            property.name,\r\n            property.location,\r\n            property.totalValue,\r\n            property.totalShares,\r\n            property.availableShares,\r\n            property.pricePerShare,\r\n            property.isListed,\r\n            property.owner\r\n        );\r\n    }\r\n\r\n    function addReview(uint256 _propertyId, uint8 _rating, string memory _comment) public {\r\n        require(registeredUsers[msg.sender], \"User not registered\");\r\n        require(propertyShares[_propertyId][msg.sender] > 0, \"Only shareholders can review\");\r\n        require(_rating >= 1 && _rating <= 5, \"Rating must be between 1 and 5\");\r\n        require(!hasReviewed[_propertyId][msg.sender], \"User has already reviewed this property\");\r\n\r\n        Property storage property = properties[_propertyId];\r\n        require(property.isListed, \"Property not listed\");\r\n\r\n        propertyReviews[_propertyId].push(Review({\r\n            reviewer: msg.sender,\r\n            rating: _rating,\r\n            comment: _comment,\r\n            timestamp: block.timestamp\r\n        }));\r\n\r\n        property.totalRating += _rating;\r\n        property.numberOfRatings++;\r\n        hasReviewed[_propertyId][msg.sender] = true;\r\n\r\n        emit ReviewAdded(_propertyId, msg.sender, _rating, _comment);\r\n    }\r\n\r\n    function getPropertyRating(uint256 _propertyId) public view returns (uint256 averageRating, uint256 numReviews) {\r\n        Property storage property = properties[_propertyId];\r\n        if (property.numberOfRatings == 0) {\r\n            return (0, 0);\r\n        }\r\n        return (property.totalRating / property.numberOfRatings, property.numberOfRatings);\r\n    }\r\n\r\n    function getPropertyReviews(uint256 _propertyId) public view returns (Review[] memory) {\r\n        return propertyReviews[_propertyId];\r\n    }\r\n\r\n    // Add function to get shareholders of a property\r\n    function getPropertyShareholders(uint256 _propertyId) public view returns (\r\n        address[] memory shareholders,\r\n        uint256[] memory shareAmounts\r\n    ) {\r\n        address[] storage _shareholders = propertyShareholderList[_propertyId];\r\n        shareholders = new address[](_shareholders.length);\r\n        shareAmounts = new uint256[](_shareholders.length);\r\n\r\n        for (uint256 i = 0; i < _shareholders.length; i++) {\r\n            shareholders[i] = _shareholders[i];\r\n            shareAmounts[i] = propertyShares[_propertyId][_shareholders[i]];\r\n        }\r\n\r\n        return (shareholders, shareAmounts);\r\n    }\r\n\r\n    // Add function to check if address is a shareholder\r\n    function isShareHolder(uint256 _propertyId, address _address) public view returns (bool) {\r\n        return isPropertyShareholder[_propertyId][_address];\r\n    }\r\n} ",
  "sourcePath": "C:\\Users\\asus\\OneDrive\\Desktop\\dApp\\contracts\\RealEstate.sol",
  "compiler": {
    "name": "solc",
    "version": "0.8.19+commit.7dd6d404.Emscripten.clang"
  },
  "schemaVersion": "3.4.16",
  "updatedAt": "2025-04-23T16:45:00.432Z",
  "networkType": "ethereum",
  "devdoc": {
    "events": {
      "Approval(address,address,uint256)": {
        "details": "Emitted when the allowance of a `spender` for an `owner` is set by a call to {approve}. `value` is the new allowance."
      },
      "Transfer(address,address,uint256)": {
        "details": "Emitted when `value` tokens are moved from one account (`from`) to another (`to`). Note that `value` may be zero."
      }
    },
    "kind": "dev",
    "methods": {
      "allowance(address,address)": {
        "details": "See {IERC20-allowance}."
      },
      "approve(address,uint256)": {
        "details": "See {IERC20-approve}. NOTE: If `amount` is the maximum `uint256`, the allowance is not updated on `transferFrom`. This is semantically equivalent to an infinite approval. Requirements: - `spender` cannot be the zero address."
      },
      "balanceOf(address)": {
        "details": "See {IERC20-balanceOf}."
      },
      "decimals()": {
        "details": "Returns the number of decimals used to get its user representation. For example, if `decimals` equals `2`, a balance of `505` tokens should be displayed to a user as `5.05` (`505 / 10 ** 2`). Tokens usually opt for a value of 18, imitating the relationship between Ether and Wei. This is the default value returned by this function, unless it's overridden. NOTE: This information is only used for _display_ purposes: it in no way affects any of the arithmetic of the contract, including {IERC20-balanceOf} and {IERC20-transfer}."
      },
      "decreaseAllowance(address,uint256)": {
        "details": "Atomically decreases the allowance granted to `spender` by the caller. This is an alternative to {approve} that can be used as a mitigation for problems described in {IERC20-approve}. Emits an {Approval} event indicating the updated allowance. Requirements: - `spender` cannot be the zero address. - `spender` must have allowance for the caller of at least `subtractedValue`."
      },
      "increaseAllowance(address,uint256)": {
        "details": "Atomically increases the allowance granted to `spender` by the caller. This is an alternative to {approve} that can be used as a mitigation for problems described in {IERC20-approve}. Emits an {Approval} event indicating the updated allowance. Requirements: - `spender` cannot be the zero address."
      },
      "name()": {
        "details": "Returns the name of the token."
      },
      "owner()": {
        "details": "Returns the address of the current owner."
      },
      "renounceOwnership()": {
        "details": "Leaves the contract without owner. It will not be possible to call `onlyOwner` functions. Can only be called by the current owner. NOTE: Renouncing ownership will leave the contract without an owner, thereby disabling any functionality that is only available to the owner."
      },
      "symbol()": {
        "details": "Returns the symbol of the token, usually a shorter version of the name."
      },
      "totalSupply()": {
        "details": "See {IERC20-totalSupply}."
      },
      "transfer(address,uint256)": {
        "details": "See {IERC20-transfer}. Requirements: - `to` cannot be the zero address. - the caller must have a balance of at least `amount`."
      },
      "transferFrom(address,address,uint256)": {
        "details": "See {IERC20-transferFrom}. Emits an {Approval} event indicating the updated allowance. This is not required by the EIP. See the note at the beginning of {ERC20}. NOTE: Does not update the allowance if the current allowance is the maximum `uint256`. Requirements: - `from` and `to` cannot be the zero address. - `from` must have a balance of at least `amount`. - the caller must have allowance for ``from``'s tokens of at least `amount`."
      },
      "transferOwnership(address)": {
        "details": "Transfers ownership of the contract to a new account (`newOwner`). Can only be called by the current owner."
      }
    },
    "version": 1
  },
  "userdoc": {
    "kind": "user",
    "methods": {},
    "version": 1
  }
}