{
  "contractName": "Ballot",
  "abi": [
    {
      "inputs": [],
      "stateMutability": "nonpayable",
      "type": "constructor"
    },
    {
      "inputs": [],
      "name": "getChairPersonAddress",
      "outputs": [
        {
          "internalType": "address",
          "name": "",
          "type": "address"
        }
      ],
      "stateMutability": "view",
      "type": "function"
    }
  ],
  "bytecode": "0x6080604052348015600f57600080fd5b50600080546001600160a01b031916331790556082806100306000396000f3fe6080604052348015600f57600080fd5b506004361060285760003560e01c8063e054583914602d575b600080fd5b600054604080516001600160a01b039092168252519081900360200190f3fea2646970667358221220b4bfc02628292db9ce233cdfd6742cd61f36deefd00f0e6a6152656b224f097064736f6c63430008130033",
  "immutableReferences": {},
  "source": "\r\npragma solidity ^0.8.0;\r\n\r\ncontract Ballot {\r\n    address chairperson;\r\n\r\n    constructor() {\r\n        chairperson = msg.sender;\r\n    }\r\n\r\n    function getChairPersonAddress() public view returns (address) {\r\n        return chairperson;\r\n    }\r\n} ",
  "sourcePath": "C:\\Users\\asus\\OneDrive\\Desktop\\dApp\\contracts\\Ballot.sol",
  "compiler": {
    "name": "solc",
    "version": "0.8.19+commit.7dd6d404.Emscripten.clang"
  },
  "schemaVersion": "3.4.16",
  "updatedAt": "2025-04-30T07:02:02.882Z",
  "devdoc": {
    "kind": "dev",
    "methods": {},
    "version": 1
  },
  "userdoc": {
    "kind": "user",
    "methods": {},
    "version": 1
  }
}