{
  "contractName": "RealEstate",
  "abi": [
    {
      "anonymous": false,
      "inputs": [
        {
          "indexed": true,
          "internalType": "address",
          "name": "previousOwner",
          "type": "address"
        },
        {
          "indexed": true,
          "internalType": "address",
          "name": "newOwner",
          "type": "address"
        }
      ],
      "name": "OwnershipTransferred",
      "type": "event"
    },
    {
      "anonymous": false,
      "inputs": [
        {
          "indexed": true,
          "internalType": "uint256",
          "name": "propertyId",
          "type": "uint256"
        },
        {
          "indexed": false,
          "internalType": "string",
          "name": "name",
          "type": "string"
        },
        {
          "indexed": false,
          "internalType": "string",
          "name": "location",
          "type": "string"
        },
        {
          "indexed": false,
          "internalType": "uint256",
          "name": "totalValue",
          "type": "uint256"
        }
      ],
      "name": "PropertyListed",
      "type": "event"
    },
    {
      "anonymous": false,
      "inputs": [
        {
          "indexed": true,
          "internalType": "uint256",
          "name": "propertyId",
          "type": "uint256"
        },
        {
          "indexed": true,
          "internalType": "address",
          "name": "reviewer",
          "type": "address"
        },
        {
          "indexed": false,
          "internalType": "uint8",
          "name": "rating",
          "type": "uint8"
        }
      ],
      "name": "ReviewAdded",
      "type": "event"
    },
    {
      "anonymous": false,
      "inputs": [
        {
          "indexed": true,
          "internalType": "uint256",
          "name": "propertyId",
          "type": "uint256"
        },
        {
          "indexed": true,
          "internalType": "address",
          "name": "shareholder",
          "type": "address"
        },
        {
          "indexed": false,
          "internalType": "uint256",
          "name": "amount",
          "type": "uint256"
        }
      ],
      "name": "ShareholderDividendSent",
      "type": "event"
    },
    {
      "anonymous": false,
      "inputs": [
        {
          "indexed": true,
          "internalType": "uint256",
          "name": "propertyId",
          "type": "uint256"
        },
        {
          "indexed": true,
          "internalType": "address",
          "name": "buyer",
          "type": "address"
        },
        {
          "indexed": false,
          "internalType": "uint256",
          "name": "shares",
          "type": "uint256"
        }
      ],
      "name": "SharesPurchased",
      "type": "event"
    },
    {
      "inputs": [
        {
          "internalType": "uint256",
          "name": "",
          "type": "uint256"
        },
        {
          "internalType": "address",
          "name": "",
          "type": "address"
        }
      ],
      "name": "hasReviewed",
      "outputs": [
        {
          "internalType": "bool",
          "name": "",
          "type": "bool"
        }
      ],
      "stateMutability": "view",
      "type": "function",
      "constant": true
    },
    {
      "inputs": [],
      "name": "owner",
      "outputs": [
        {
          "internalType": "address",
          "name": "",
          "type": "address"
        }
      ],
      "stateMutability": "view",
      "type": "function",
      "constant": true
    },
    {
      "inputs": [
        {
          "internalType": "uint256",
          "name": "",
          "type": "uint256"
        }
      ],
      "name": "properties",
      "outputs": [
        {
          "internalType": "string",
          "name": "name",
          "type": "string"
        },
        {
          "internalType": "string",
          "name": "location",
          "type": "string"
        },
        {
          "internalType": "uint256",
          "name": "totalValue",
          "type": "uint256"
        },
        {
          "internalType": "uint256",
          "name": "totalShares",
          "type": "uint256"
        },
        {
          "internalType": "uint256",
          "name": "availableShares",
          "type": "uint256"
        },
        {
          "internalType": "uint256",
          "name": "pricePerShare",
          "type": "uint256"
        },
        {
          "internalType": "address",
          "name": "owner",
          "type": "address"
        },
        {
          "internalType": "bool",
          "name": "isListed",
          "type": "bool"
        }
      ],
      "stateMutability": "view",
      "type": "function",
      "constant": true
    },
    {
      "inputs": [],
      "name": "propertyCount",
      "outputs": [
        {
          "internalType": "uint256",
          "name": "",
          "type": "uint256"
        }
      ],
      "stateMutability": "view",
      "type": "function",
      "constant": true
    },
    {
      "inputs": [
        {
          "internalType": "uint256",
          "name": "",
          "type": "uint256"
        },
        {
          "internalType": "uint256",
          "name": "",
          "type": "uint256"
        }
      ],
      "name": "propertyReviews",
      "outputs": [
        {
          "internalType": "address",
          "name": "reviewer",
          "type": "address"
        },
        {
          "internalType": "uint8",
          "name": "rating",
          "type": "uint8"
        },
        {
          "internalType": "string",
          "name": "comment",
          "type": "string"
        },
        {
          "internalType": "uint256",
          "name": "timestamp",
          "type": "uint256"
        }
      ],
      "stateMutability": "view",
      "type": "function",
      "constant": true
    },
    {
      "inputs": [
        {
          "internalType": "uint256",
          "name": "",
          "type": "uint256"
        },
        {
          "internalType": "uint256",
          "name": "",
          "type": "uint256"
        }
      ],
      "name": "propertyShareholders",
      "outputs": [
        {
          "internalType": "address",
          "name": "",
          "type": "address"
        }
      ],
      "stateMutability": "view",
      "type": "function",
      "constant": true
    },
    {
      "inputs": [
        {
          "internalType": "uint256",
          "name": "",
          "type": "uint256"
        },
        {
          "internalType": "address",
          "name": "",
          "type": "address"
        }
      ],
      "name": "propertyShares",
      "outputs": [
        {
          "internalType": "uint256",
          "name": "",
          "type": "uint256"
        }
      ],
      "stateMutability": "view",
      "type": "function",
      "constant": true
    },
    {
      "inputs": [
        {
          "internalType": "address",
          "name": "",
          "type": "address"
        }
      ],
      "name": "registeredUsers",
      "outputs": [
        {
          "internalType": "bool",
          "name": "",
          "type": "bool"
        }
      ],
      "stateMutability": "view",
      "type": "function",
      "constant": true
    },
    {
      "inputs": [],
      "name": "renounceOwnership",
      "outputs": [],
      "stateMutability": "nonpayable",
      "type": "function"
    },
    {
      "inputs": [
        {
          "internalType": "address",
          "name": "newOwner",
          "type": "address"
        }
      ],
      "name": "transferOwnership",
      "outputs": [],
      "stateMutability": "nonpayable",
      "type": "function"
    },
    {
      "inputs": [],
      "name": "registerUser",
      "outputs": [],
      "stateMutability": "nonpayable",
      "type": "function"
    },
    {
      "inputs": [
        {
          "internalType": "address",
          "name": "user",
          "type": "address"
        }
      ],
      "name": "isUserRegistered",
      "outputs": [
        {
          "internalType": "bool",
          "name": "",
          "type": "bool"
        }
      ],
      "stateMutability": "view",
      "type": "function",
      "constant": true
    },
    {
      "inputs": [
        {
          "internalType": "string",
          "name": "_name",
          "type": "string"
        },
        {
          "internalType": "string",
          "name": "_location",
          "type": "string"
        },
        {
          "internalType": "uint256",
          "name": "_totalValue",
          "type": "uint256"
        },
        {
          "internalType": "uint256",
          "name": "_totalShares",
          "type": "uint256"
        },
        {
          "internalType": "uint256",
          "name": "_pricePerShare",
          "type": "uint256"
        }
      ],
      "name": "listProperty",
      "outputs": [],
      "stateMutability": "nonpayable",
      "type": "function"
    },
    {
      "inputs": [
        {
          "internalType": "uint256",
          "name": "_propertyId",
          "type": "uint256"
        },
        {
          "internalType": "uint256",
          "name": "_shares",
          "type": "uint256"
        }
      ],
      "name": "purchaseShares",
      "outputs": [],
      "stateMutability": "payable",
      "type": "function",
      "payable": true
    },
    {
      "inputs": [
        {
          "internalType": "uint256",
          "name": "_propertyId",
          "type": "uint256"
        }
      ],
      "name": "distributeDividends",
      "outputs": [],
      "stateMutability": "payable",
      "type": "function",
      "payable": true
    },
    {
      "inputs": [
        {
          "internalType": "uint256",
          "name": "_propertyId",
          "type": "uint256"
        },
        {
          "internalType": "uint8",
          "name": "_rating",
          "type": "uint8"
        },
        {
          "internalType": "string",
          "name": "_comment",
          "type": "string"
        }
      ],
      "name": "addReview",
      "outputs": [],
      "stateMutability": "nonpayable",
      "type": "function"
    },
    {
      "inputs": [
        {
          "internalType": "uint256",
          "name": "_propertyId",
          "type": "uint256"
        }
      ],
      "name": "getPropertyRating",
      "outputs": [
        {
          "internalType": "uint256",
          "name": "",
          "type": "uint256"
        },
        {
          "internalType": "uint256",
          "name": "",
          "type": "uint256"
        }
      ],
      "stateMutability": "view",
      "type": "function",
      "constant": true
    },
    {
      "inputs": [
        {
          "internalType": "uint256",
          "name": "_propertyId",
          "type": "uint256"
        }
      ],
      "name": "getPropertyReviews",
      "outputs": [
        {
          "components": [
            {
              "internalType": "address",
              "name": "reviewer",
              "type": "address"
            },
            {
              "internalType": "uint8",
              "name": "rating",
              "type": "uint8"
            },
            {
              "internalType": "string",
              "name": "comment",
              "type": "string"
            },
            {
              "internalType": "uint256",
              "name": "timestamp",
              "type": "uint256"
            }
          ],
          "internalType": "struct RealEstate.Review[]",
          "name": "",
          "type": "tuple[]"
        }
      ],
      "stateMutability": "view",
      "type": "function",
      "constant": true
    },
    {
      "inputs": [
        {
          "internalType": "uint256",
          "name": "_propertyId",
          "type": "uint256"
        }
      ],
      "name": "getProperty",
      "outputs": [
        {
          "internalType": "string",
          "name": "name",
          "type": "string"
        },
        {
          "internalType": "string",
          "name": "location",
          "type": "string"
        },
        {
          "internalType": "uint256",
          "name": "totalValue",
          "type": "uint256"
        },
        {
          "internalType": "uint256",
          "name": "totalShares",
          "type": "uint256"
        },
        {
          "internalType": "uint256",
          "name": "availableShares",
          "type": "uint256"
        },
        {
          "internalType": "uint256",
          "name": "pricePerShare",
          "type": "uint256"
        },
        {
          "internalType": "address",
          "name": "owner",
          "type": "address"
        },
        {
          "internalType": "bool",
          "name": "isListed",
          "type": "bool"
        }
      ],
      "stateMutability": "view",
      "type": "function",
      "constant": true
    },
    {
      "inputs": [
        {
          "internalType": "uint256",
          "name": "_propertyId",
          "type": "uint256"
        },
        {
          "internalType": "address",
          "name": "_shareholder",
          "type": "address"
        }
      ],
      "name": "getPropertyShares",
      "outputs": [
        {
          "internalType": "uint256",
          "name": "",
          "type": "uint256"
        }
      ],
      "stateMutability": "view",
      "type": "function",
      "constant": true
    },
    {
      "inputs": [
        {
          "internalType": "uint256",
          "name": "_propertyId",
          "type": "uint256"
        }
      ],
      "name": "getPropertyShareholders",
      "outputs": [
        {
          "internalType": "address[]",
          "name": "",
          "type": "address[]"
        }
      ],
      "stateMutability": "view",
      "type": "function",
      "constant": true
    }
  ],
  "bytecode": "0x608060405234801561001057600080fd5b5061001a3361001f565b61006f565b600080546001600160a01b038381166001600160a01b0319831681178455604051919092169283917f8be0079c531659141344cd1fd0a4f28419497f9722a3daafe3b4186f6b6457e09190a35050565b611d5a8061007e6000396000f3fe60806040526004361061012a5760003560e01c8063715018a6116100ab578063c361a3351161006f578063c361a335146103c6578063d2bcdc60146103dc578063d9a9cd43146103ef578063ebf9aa921461040f578063f2fde38b1461043f578063f7b108081461045f57600080fd5b8063715018a61461030b5780637c7198cc146103205780638a5025a71461035b5780638da5cb5b1461037b578063ad834ff01461039957600080fd5b806338667c5f116100f257806338667c5f1461022b5780634909f98b146102715780634d3820eb1461029157806356a79e91146102a65780636a3b1470146102d357600080fd5b806306bcd61e1461012f5780630e50cee514610169578063163f7522146101a95780633243c791146101e257806332665ffb146101f7575b600080fd5b34801561013b57600080fd5b5061014f61014a3660046116b0565b61047f565b604080519283526020830191909152015b60405180910390f35b34801561017557600080fd5b506101996101843660046116e5565b60066020526000908152604090205460ff1681565b6040519015158152602001610160565b3480156101b557600080fd5b506101996101c43660046116e5565b6001600160a01b031660009081526006602052604090205460ff1690565b6101f56101f03660046116b0565b610536565b005b34801561020357600080fd5b506102176102123660046116b0565b6107e4565b60405161016098979695949392919061174d565b34801561023757600080fd5b506102636102463660046117b3565b600260209081526000928352604080842090915290825290205481565b604051908152602001610160565b34801561027d57600080fd5b506101f561028c366004611882565b6109a0565b34801561029d57600080fd5b506101f5610c1e565b3480156102b257600080fd5b506102c66102c13660046116b0565b610c9a565b60405161016091906118e1565b3480156102df57600080fd5b506102f36102ee36600461192e565b610d06565b6040516001600160a01b039091168152602001610160565b34801561031757600080fd5b506101f5610d3e565b34801561032c57600080fd5b5061019961033b3660046117b3565b600560209081526000928352604080842090915290825290205460ff1681565b34801561036757600080fd5b506102636103763660046117b3565b610d52565b34801561038757600080fd5b506000546001600160a01b03166102f3565b3480156103a557600080fd5b506103b96103b43660046116b0565b610d7c565b6040516101609190611950565b3480156103d257600080fd5b5061026360075481565b6101f56103ea36600461192e565b610ed4565b3480156103fb57600080fd5b506101f561040a3660046119ea565b611110565b34801561041b57600080fd5b5061042f61042a36600461192e565b61134c565b6040516101609493929190611a69565b34801561044b57600080fd5b506101f561045a3660046116e5565b61142c565b34801561046b57600080fd5b5061021761047a3660046116b0565b6114a5565b60008060008311801561049457506007548311155b6104b95760405162461bcd60e51b81526004016104b090611aa7565b60405180910390fd5b600083815260046020526040812054815b8181101561052b5760008681526004602052604090208054829081106104f2576104f2611ad4565b600091825260209091206003909102015461051790600160a01b900460ff1684611b00565b92508061052381611b13565b9150506104ca565b509094909350915050565b3360009081526006602052604090205460ff166105655760405162461bcd60e51b81526004016104b090611b2c565b60008111801561057757506007548111155b6105935760405162461bcd60e51b81526004016104b090611aa7565b600081815260016020526040902060068101546001600160a01b031633146106095760405162461bcd60e51b815260206004820152602360248201527f4f6e6c79206f776e65722063616e2064697374726962757465206469766964656044820152626e647360e81b60648201526084016104b0565b600034116106595760405162461bcd60e51b815260206004820152601b60248201527f4d7573742073656e642045544820746f2064697374726962757465000000000060448201526064016104b0565b60008160040154826003015461066f9190611b59565b9050600081116106c15760405162461bcd60e51b815260206004820152601d60248201527f4e6f207368617265732068617665206265656e2070757263686173656400000060448201526064016104b0565b60005b6000848152600360205260409020548110156107de5760008481526003602052604081208054839081106106fa576106fa611ad4565b60009182526020808320909101548783526002825260408084206001600160a01b039092168085529190925291205490915080156107c95760008461073f8334611b6c565b6107499190611b83565b6040519091506001600160a01b0384169082156108fc029083906000818181858888f19350505050158015610782573d6000803e3d6000fd5b50826001600160a01b0316877f09b6f25dcf73bf27b14c6ec1844f087cbb2a614db8a9e9e5da907eb282f923c0836040516107bf91815260200190565b60405180910390a3505b505080806107d690611b13565b9150506106c4565b50505050565b60608060008060008060008060008911801561080257506007548911155b61081e5760405162461bcd60e51b81526004016104b090611aa7565b60008981526001602081905260409091206002810154600382015460048301546005840154600685015485549596879690870195949392916001600160a01b03811691600160a01b90910460ff1690889061087890611ba5565b80601f01602080910402602001604051908101604052809291908181526020018280546108a490611ba5565b80156108f15780601f106108c6576101008083540402835291602001916108f1565b820191906000526020600020905b8154815290600101906020018083116108d457829003601f168201915b5050505050975086805461090490611ba5565b80601f016020809104026020016040519081016040528092919081815260200182805461093090611ba5565b801561097d5780601f106109525761010080835404028352916020019161097d565b820191906000526020600020905b81548152906001019060200180831161096057829003601f168201915b505050505096509850985098509850985098509850985050919395975091939597565b3360009081526006602052604090205460ff166109cf5760405162461bcd60e51b81526004016104b090611b2c565b6000831180156109e157506007548311155b6109fd5760405162461bcd60e51b81526004016104b090611aa7565b60018260ff1610158015610a15575060058260ff1611155b610a615760405162461bcd60e51b815260206004820152601e60248201527f526174696e67206d757374206265206265747765656e203120616e642035000060448201526064016104b0565b6000838152600260209081526040808320338452909152902054610ac75760405162461bcd60e51b815260206004820152601960248201527f4d757374206f776e2073686172657320746f207265766965770000000000000060448201526064016104b0565b600083815260056020908152604080832033845290915290205460ff1615610b245760405162461bcd60e51b815260206004820152601060248201526f105b1c9958591e481c995d9a595dd95960821b60448201526064016104b0565b6000838152600460209081526040808320815160808101835233815260ff80881682860190815293820187815242606084015283546001818101865594885295909620825160039096020180549451909116600160a01b026001600160a81b03199094166001600160a01b03959095169490941792909217835592519092820190610baf9082611c2e565b506060919091015160029091015560008381526005602090815260408083203380855290835292819020805460ff191660011790555160ff8516815285917fcd105d6c08f27f681ab198bd63b5f4b32ce4977facd0909acb589cf2c826687291015b60405180910390a3505050565b3360009081526006602052604090205460ff1615610c7e5760405162461bcd60e51b815260206004820152601760248201527f5573657220616c7265616479207265676973746572656400000000000000000060448201526064016104b0565b336000908152600660205260409020805460ff19166001179055565b600081815260036020908152604091829020805483518184028101840190945280845260609392830182828015610cfa57602002820191906000526020600020905b81546001600160a01b03168152600190910190602001808311610cdc575b50505050509050919050565b60036020528160005260406000208181548110610d2257600080fd5b6000918252602090912001546001600160a01b03169150829050565b610d46611606565b610d506000611660565b565b60008281526002602090815260408083206001600160a01b03851684529091529020545b92915050565b6060600082118015610d9057506007548211155b610dac5760405162461bcd60e51b81526004016104b090611aa7565b600082815260046020908152604080832080548251818502810185019093528083529193909284015b82821015610ec9576000848152602090819020604080516080810182526003860290920180546001600160a01b0381168452600160a01b900460ff169383019390935260018301805492939291840191610e2e90611ba5565b80601f0160208091040260200160405190810160405280929190818152602001828054610e5a90611ba5565b8015610ea75780601f10610e7c57610100808354040283529160200191610ea7565b820191906000526020600020905b815481529060010190602001808311610e8a57829003601f168201915b5050505050815260200160028201548152505081526020019060010190610dd5565b505050509050919050565b3360009081526006602052604090205460ff16610f035760405162461bcd60e51b81526004016104b090611b2c565b600082118015610f1557506007548211155b610f315760405162461bcd60e51b81526004016104b090611aa7565b60008281526001602052604090206006810154600160a01b900460ff16610f905760405162461bcd60e51b8152602060048201526013602482015272141c9bdc195c9d1e481b9bdd081b1a5cdd1959606a1b60448201526064016104b0565b600082118015610fa4575080600401548211155b610fe75760405162461bcd60e51b8152602060048201526014602482015273125b9d985b1a59081cda185c9948185b5bdd5b9d60621b60448201526064016104b0565b818160050154610ff79190611b6c565b34146110455760405162461bcd60e51b815260206004820152601860248201527f496e636f7272656374207061796d656e7420616d6f756e74000000000000000060448201526064016104b0565b818160040160008282546110599190611b59565b9091555050600083815260026020908152604080832033845290915281208054849290611087908490611b00565b909155505060008381526002602090815260408083203384529091529020548290036110dc5760008381526003602090815260408220805460018101825590835291200180546001600160a01b031916331790555b604051828152339084907fd4a7a37d339805413b4085e0f8e0932dfb0a4f84f08f98a6e53673b5ee8eee1590602001610c11565b3360009081526006602052604090205460ff1661113f5760405162461bcd60e51b81526004016104b090611b2c565b600083116111855760405162461bcd60e51b8152602060048201526013602482015272496e76616c696420746f74616c2076616c756560681b60448201526064016104b0565b600082116111cc5760405162461bcd60e51b8152602060048201526014602482015273496e76616c696420746f74616c2073686172657360601b60448201526064016104b0565b6000811161121c5760405162461bcd60e51b815260206004820152601760248201527f496e76616c69642070726963652070657220736861726500000000000000000060448201526064016104b0565b6007805490600061122c83611b13565b909155505060408051610100810182528681526020808201879052818301869052606082018590526080820185905260a082018490523360c0830152600160e0830181905260075460009081529152919091208151819061128d9082611c2e565b50602082015160018201906112a29082611c2e565b506040828101516002830155606083015160038301556080830151600483015560a0830151600583015560c08301516006909201805460e0909401511515600160a01b026001600160a81b03199094166001600160a01b039093169290921792909217905560075490517f075729ce63bbb5e8ee82de621bc1a420cf704ca2944f259402915da9ec6a0fca9061133d90889088908890611cee565b60405180910390a25050505050565b6004602052816000526040600020818154811061136857600080fd5b6000918252602090912060039091020180546001820180546001600160a01b0383169550600160a01b90920460ff169350906113a390611ba5565b80601f01602080910402602001604051908101604052809291908181526020018280546113cf90611ba5565b801561141c5780601f106113f15761010080835404028352916020019161141c565b820191906000526020600020905b8154815290600101906020018083116113ff57829003601f168201915b5050505050908060020154905084565b611434611606565b6001600160a01b0381166114995760405162461bcd60e51b815260206004820152602660248201527f4f776e61626c653a206e6577206f776e657220697320746865207a65726f206160448201526564647265737360d01b60648201526084016104b0565b6114a281611660565b50565b6001602052600090815260409020805481906114c090611ba5565b80601f01602080910402602001604051908101604052809291908181526020018280546114ec90611ba5565b80156115395780601f1061150e57610100808354040283529160200191611539565b820191906000526020600020905b81548152906001019060200180831161151c57829003601f168201915b50505050509080600101805461154e90611ba5565b80601f016020809104026020016040519081016040528092919081815260200182805461157a90611ba5565b80156115c75780601f1061159c576101008083540402835291602001916115c7565b820191906000526020600020905b8154815290600101906020018083116115aa57829003601f168201915b50505060028401546003850154600486015460058701546006909701549596929591945092506001600160a01b0381169060ff600160a01b9091041688565b6000546001600160a01b03163314610d505760405162461bcd60e51b815260206004820181905260248201527f4f776e61626c653a2063616c6c6572206973206e6f7420746865206f776e657260448201526064016104b0565b600080546001600160a01b038381166001600160a01b0319831681178455604051919092169283917f8be0079c531659141344cd1fd0a4f28419497f9722a3daafe3b4186f6b6457e09190a35050565b6000602082840312156116c257600080fd5b5035919050565b80356001600160a01b03811681146116e057600080fd5b919050565b6000602082840312156116f757600080fd5b611700826116c9565b9392505050565b6000815180845260005b8181101561172d57602081850181015186830182015201611711565b506000602082860101526020601f19601f83011685010191505092915050565b60006101008083526117618184018c611707565b90508281036020840152611775818b611707565b604084019990995250506060810195909552608085019390935260a08401919091526001600160a01b031660c0830152151560e09091015292915050565b600080604083850312156117c657600080fd5b823591506117d6602084016116c9565b90509250929050565b634e487b7160e01b600052604160045260246000fd5b600082601f83011261180657600080fd5b813567ffffffffffffffff80821115611821576118216117df565b604051601f8301601f19908116603f01168101908282118183101715611849576118496117df565b8160405283815286602085880101111561186257600080fd5b836020870160208301376000602085830101528094505050505092915050565b60008060006060848603121561189757600080fd5b83359250602084013560ff811681146118af57600080fd5b9150604084013567ffffffffffffffff8111156118cb57600080fd5b6118d7868287016117f5565b9150509250925092565b6020808252825182820181905260009190848201906040850190845b818110156119225783516001600160a01b0316835292840192918401916001016118fd565b50909695505050505050565b6000806040838503121561194157600080fd5b50508035926020909101359150565b60006020808301818452808551808352604092508286019150828160051b87010184880160005b838110156119dc57888303603f19018552815180516001600160a01b031684528781015160ff1688850152868101516080888601819052906119bb82870182611707565b60609384015196909301959095525094870194925090860190600101611977565b509098975050505050505050565b600080600080600060a08688031215611a0257600080fd5b853567ffffffffffffffff80821115611a1a57600080fd5b611a2689838a016117f5565b96506020880135915080821115611a3c57600080fd5b50611a49888289016117f5565b959895975050505060408401359360608101359360809091013592509050565b6001600160a01b038516815260ff84166020820152608060408201819052600090611a9690830185611707565b905082606083015295945050505050565b602080825260139082015272125b9d985b1a59081c1c9bdc195c9d1e481251606a1b604082015260600190565b634e487b7160e01b600052603260045260246000fd5b634e487b7160e01b600052601160045260246000fd5b80820180821115610d7657610d76611aea565b600060018201611b2557611b25611aea565b5060010190565b602080825260139082015272155cd95c881b9bdd081c9959da5cdd195c9959606a1b604082015260600190565b81810381811115610d7657610d76611aea565b8082028115828204841417610d7657610d76611aea565b600082611ba057634e487b7160e01b600052601260045260246000fd5b500490565b600181811c90821680611bb957607f821691505b602082108103611bd957634e487b7160e01b600052602260045260246000fd5b50919050565b601f821115611c2957600081815260208120601f850160051c81016020861015611c065750805b601f850160051c820191505b81811015611c2557828155600101611c12565b5050505b505050565b815167ffffffffffffffff811115611c4857611c486117df565b611c5c81611c568454611ba5565b84611bdf565b602080601f831160018114611c915760008415611c795750858301515b600019600386901b1c1916600185901b178555611c25565b600085815260208120601f198616915b82811015611cc057888601518255948401946001909101908401611ca1565b5085821015611cde5787850151600019600388901b60f8161c191681555b5050505050600190811b01905550565b606081526000611d016060830186611707565b8281036020840152611d138186611707565b91505082604083015294935050505056fea2646970667358221220009be98156ad167e45ec34d01ae55af5067f929d9644958faa665092e2223d3064736f6c63430008130033",
  "immutableReferences": {},
  "source": "// SPDX-License-Identifier: MIT\npragma solidity ^0.8.0;\n\nimport \"@openzeppelin/contracts/access/Ownable.sol\";\nimport \"@openzeppelin/contracts/token/ERC20/ERC20.sol\";\n\ncontract RealEstate is Ownable {\n    struct Property {\n        string name;\n        string location;\n        uint256 totalValue;\n        uint256 totalShares;\n        uint256 availableShares;\n        uint256 pricePerShare;\n        address owner;\n        bool isListed;\n    }\n\n    struct Review {\n        address reviewer;\n        uint8 rating;\n        string comment;\n        uint256 timestamp;\n    }\n\n    mapping(uint256 => Property) public properties;\n    mapping(uint256 => mapping(address => uint256)) public propertyShares;\n    mapping(uint256 => address[]) public propertyShareholders;\n    mapping(uint256 => Review[]) public propertyReviews;\n    mapping(uint256 => mapping(address => bool)) public hasReviewed;\n    mapping(address => bool) public registeredUsers;\n    \n    uint256 public propertyCount;\n\n    event PropertyListed(uint256 indexed propertyId, string name, string location, uint256 totalValue);\n    event SharesPurchased(uint256 indexed propertyId, address indexed buyer, uint256 shares);\n    event ShareholderDividendSent(uint256 indexed propertyId, address indexed shareholder, uint256 amount);\n    event ReviewAdded(uint256 indexed propertyId, address indexed reviewer, uint8 rating);\n\n    modifier onlyRegistered() {\n        require(registeredUsers[msg.sender], \"User not registered\");\n        _;\n    }\n\n    function registerUser() public {\n        require(!registeredUsers[msg.sender], \"User already registered\");\n        registeredUsers[msg.sender] = true;\n    }\n\n    function isUserRegistered(address user) public view returns (bool) {\n        return registeredUsers[user];\n    }\n\n    function listProperty(\n        string memory _name,\n        string memory _location,\n        uint256 _totalValue,\n        uint256 _totalShares,\n        uint256 _pricePerShare\n    ) public onlyRegistered {\n        require(_totalValue > 0, \"Invalid total value\");\n        require(_totalShares > 0, \"Invalid total shares\");\n        require(_pricePerShare > 0, \"Invalid price per share\");\n\n        propertyCount++;\n        properties[propertyCount] = Property({\n            name: _name,\n            location: _location,\n            totalValue: _totalValue,\n            totalShares: _totalShares,\n            availableShares: _totalShares,\n            pricePerShare: _pricePerShare,\n            owner: msg.sender,\n            isListed: true\n        });\n\n        emit PropertyListed(propertyCount, _name, _location, _totalValue);\n    }\n\n    function purchaseShares(uint256 _propertyId, uint256 _shares) public payable onlyRegistered {\n        require(_propertyId > 0 && _propertyId <= propertyCount, \"Invalid property ID\");\n        Property storage property = properties[_propertyId];\n        require(property.isListed, \"Property not listed\");\n        require(_shares > 0 && _shares <= property.availableShares, \"Invalid share amount\");\n        require(msg.value == property.pricePerShare * _shares, \"Incorrect payment amount\");\n\n        property.availableShares -= _shares;\n        propertyShares[_propertyId][msg.sender] += _shares;\n\n        if (propertyShares[_propertyId][msg.sender] == _shares) {\n            propertyShareholders[_propertyId].push(msg.sender);\n        }\n\n        emit SharesPurchased(_propertyId, msg.sender, _shares);\n    }\n\n    function distributeDividends(uint256 _propertyId) public payable onlyRegistered {\n        require(_propertyId > 0 && _propertyId <= propertyCount, \"Invalid property ID\");\n        Property storage property = properties[_propertyId];\n        require(msg.sender == property.owner, \"Only owner can distribute dividends\");\n        require(msg.value > 0, \"Must send ETH to distribute\");\n\n        uint256 totalShares = property.totalShares - property.availableShares;\n        require(totalShares > 0, \"No shares have been purchased\");\n\n        for (uint256 i = 0; i < propertyShareholders[_propertyId].length; i++) {\n            address shareholder = propertyShareholders[_propertyId][i];\n            uint256 shares = propertyShares[_propertyId][shareholder];\n            if (shares > 0) {\n                uint256 dividend = (msg.value * shares) / totalShares;\n                payable(shareholder).transfer(dividend);\n                emit ShareholderDividendSent(_propertyId, shareholder, dividend);\n            }\n        }\n    }\n\n    function addReview(uint256 _propertyId, uint8 _rating, string memory _comment) public onlyRegistered {\n        require(_propertyId > 0 && _propertyId <= propertyCount, \"Invalid property ID\");\n        require(_rating >= 1 && _rating <= 5, \"Rating must be between 1 and 5\");\n        require(propertyShares[_propertyId][msg.sender] > 0, \"Must own shares to review\");\n        require(!hasReviewed[_propertyId][msg.sender], \"Already reviewed\");\n\n        propertyReviews[_propertyId].push(Review({\n            reviewer: msg.sender,\n            rating: _rating,\n            comment: _comment,\n            timestamp: block.timestamp\n        }));\n\n        hasReviewed[_propertyId][msg.sender] = true;\n        emit ReviewAdded(_propertyId, msg.sender, _rating);\n    }\n\n    function getPropertyRating(uint256 _propertyId) public view returns (uint256, uint256) {\n        require(_propertyId > 0 && _propertyId <= propertyCount, \"Invalid property ID\");\n        \n        uint256 totalRating = 0;\n        uint256 numReviews = propertyReviews[_propertyId].length;\n        \n        for (uint256 i = 0; i < numReviews; i++) {\n            totalRating += propertyReviews[_propertyId][i].rating;\n        }\n        \n        return (totalRating, numReviews);\n    }\n\n    function getPropertyReviews(uint256 _propertyId) public view returns (Review[] memory) {\n        require(_propertyId > 0 && _propertyId <= propertyCount, \"Invalid property ID\");\n        return propertyReviews[_propertyId];\n    }\n\n    function getProperty(uint256 _propertyId) public view returns (\n        string memory name,\n        string memory location,\n        uint256 totalValue,\n        uint256 totalShares,\n        uint256 availableShares,\n        uint256 pricePerShare,\n        address owner,\n        bool isListed\n    ) {\n        require(_propertyId > 0 && _propertyId <= propertyCount, \"Invalid property ID\");\n        Property storage property = properties[_propertyId];\n        return (\n            property.name,\n            property.location,\n            property.totalValue,\n            property.totalShares,\n            property.availableShares,\n            property.pricePerShare,\n            property.owner,\n            property.isListed\n        );\n    }\n\n    function getPropertyShares(uint256 _propertyId, address _shareholder) public view returns (uint256) {\n        return propertyShares[_propertyId][_shareholder];\n    }\n\n    function getPropertyShareholders(uint256 _propertyId) public view returns (address[] memory) {\n        return propertyShareholders[_propertyId];\n    }\n} ",
  "sourcePath": "C:\\Users\\asus\\OneDrive\\Desktop\\dApp\\contracts\\RealEstate.sol",
  "compiler": {
    "name": "solc",
    "version": "0.8.19+commit.7dd6d404.Emscripten.clang"
  },
  "schemaVersion": "3.4.16",
  "updatedAt": "2025-04-30T07:02:06.931Z",
  "networkType": "ethereum",
  "devdoc": {
    "kind": "dev",
    "methods": {
      "owner()": {
        "details": "Returns the address of the current owner."
      },
      "renounceOwnership()": {
        "details": "Leaves the contract without owner. It will not be possible to call `onlyOwner` functions. Can only be called by the current owner. NOTE: Renouncing ownership will leave the contract without an owner, thereby disabling any functionality that is only available to the owner."
      },
      "transferOwnership(address)": {
        "details": "Transfers ownership of the contract to a new account (`newOwner`). Can only be called by the current owner."
      }
    },
    "version": 1
  },
  "userdoc": {
    "kind": "user",
    "methods": {},
    "version": 1
  }
}