{
  "contractName": "RealEstateRental",
  "abi": [
    {
      "inputs": [
        {
          "internalType": "address",
          "name": "_realEstateAddress",
          "type": "address"
        }
      ],
      "stateMutability": "nonpayable",
      "type": "constructor"
    },
    {
      "anonymous": false,
      "inputs": [
        {
          "indexed": true,
          "internalType": "uint256",
          "name": "propertyId",
          "type": "uint256"
        },
        {
          "indexed": true,
          "internalType": "address",
          "name": "tenant",
          "type": "address"
        },
        {
          "indexed": false,
          "internalType": "uint256",
          "name": "startDate",
          "type": "uint256"
        },
        {
          "indexed": false,
          "internalType": "uint256",
          "name": "endDate",
          "type": "uint256"
        },
        {
          "indexed": false,
          "internalType": "uint256",
          "name": "yearlyRent",
          "type": "uint256"
        }
      ],
      "name": "PropertyRented",
      "type": "event"
    },
    {
      "anonymous": false,
      "inputs": [
        {
          "indexed": true,
          "internalType": "uint256",
          "name": "propertyId",
          "type": "uint256"
        },
        {
          "indexed": true,
          "internalType": "address",
          "name": "shareholder",
          "type": "address"
        },
        {
          "indexed": false,
          "internalType": "uint256",
          "name": "amount",
          "type": "uint256"
        },
        {
          "indexed": false,
          "internalType": "uint256",
          "name": "paymentDate",
          "type": "uint256"
        }
      ],
      "name": "RentalPaymentDistributed",
      "type": "event"
    },
    {
      "inputs": [
        {
          "internalType": "uint256",
          "name": "",
          "type": "uint256"
        }
      ],
      "name": "propertyRentals",
      "outputs": [
        {
          "internalType": "address",
          "name": "tenant",
          "type": "address"
        },
        {
          "internalType": "uint256",
          "name": "startDate",
          "type": "uint256"
        },
        {
          "internalType": "uint256",
          "name": "endDate",
          "type": "uint256"
        },
        {
          "internalType": "uint256",
          "name": "yearlyRent",
          "type": "uint256"
        },
        {
          "internalType": "bool",
          "name": "isActive",
          "type": "bool"
        },
        {
          "internalType": "string",
          "name": "propertyName",
          "type": "string"
        },
        {
          "internalType": "string",
          "name": "propertyLocation",
          "type": "string"
        }
      ],
      "stateMutability": "view",
      "type": "function",
      "constant": true
    },
    {
      "inputs": [],
      "name": "realEstate",
      "outputs": [
        {
          "internalType": "contract RealEstate",
          "name": "",
          "type": "address"
        }
      ],
      "stateMutability": "view",
      "type": "function",
      "constant": true
    },
    {
      "inputs": [
        {
          "internalType": "address",
          "name": "",
          "type": "address"
        },
        {
          "internalType": "uint256",
          "name": "",
          "type": "uint256"
        }
      ],
      "name": "userRentals",
      "outputs": [
        {
          "internalType": "uint256",
          "name": "",
          "type": "uint256"
        }
      ],
      "stateMutability": "view",
      "type": "function",
      "constant": true
    },
    {
      "inputs": [
        {
          "internalType": "uint256",
          "name": "_propertyId",
          "type": "uint256"
        },
        {
          "internalType": "uint256",
          "name": "_years",
          "type": "uint256"
        }
      ],
      "name": "rentProperty",
      "outputs": [],
      "stateMutability": "payable",
      "type": "function",
      "payable": true
    },
    {
      "inputs": [
        {
          "internalType": "uint256",
          "name": "_propertyId",
          "type": "uint256"
        }
      ],
      "name": "distributeRentalPayment",
      "outputs": [],
      "stateMutability": "payable",
      "type": "function",
      "payable": true
    },
    {
      "inputs": [
        {
          "internalType": "address",
          "name": "_user",
          "type": "address"
        }
      ],
      "name": "getUserRentals",
      "outputs": [
        {
          "internalType": "uint256[]",
          "name": "",
          "type": "uint256[]"
        }
      ],
      "stateMutability": "view",
      "type": "function",
      "constant": true
    },
    {
      "inputs": [
        {
          "internalType": "uint256",
          "name": "_propertyId",
          "type": "uint256"
        }
      ],
      "name": "getRentalDetails",
      "outputs": [
        {
          "internalType": "address",
          "name": "tenant",
          "type": "address"
        },
        {
          "internalType": "uint256",
          "name": "startDate",
          "type": "uint256"
        },
        {
          "internalType": "uint256",
          "name": "endDate",
          "type": "uint256"
        },
        {
          "internalType": "uint256",
          "name": "yearlyRent",
          "type": "uint256"
        },
        {
          "internalType": "bool",
          "name": "isActive",
          "type": "bool"
        },
        {
          "internalType": "string",
          "name": "propertyName",
          "type": "string"
        },
        {
          "internalType": "string",
          "name": "propertyLocation",
          "type": "string"
        }
      ],
      "stateMutability": "view",
      "type": "function",
      "constant": true
    },
    {
      "inputs": [
        {
          "internalType": "uint256",
          "name": "_propertyId",
          "type": "uint256"
        }
      ],
      "name": "isPropertyRented",
      "outputs": [
        {
          "internalType": "bool",
          "name": "",
          "type": "bool"
        }
      ],
      "stateMutability": "view",
      "type": "function",
      "constant": true
    }
  ],
  "bytecode": "0x608060405234801561001057600080fd5b5060405161139238038061139283398101604081905261002f91610054565b600080546001600160a01b0319166001600160a01b0392909216919091179055610084565b60006020828403121561006657600080fd5b81516001600160a01b038116811461007d57600080fd5b9392505050565b6112ff806100936000396000f3fe60806040526004361061007a5760003560e01c806358e679ed1161004e57806358e679ed1461013c57806370ce84971461016a57806397b36b88146101a2578063c7510d33146101c257600080fd5b8062493a0f1461007f57806317088b34146100c75780633b6702a1146100fa5780633ec4ebb714610127575b600080fd5b34801561008b57600080fd5b506100b261009a366004610cfb565b60009081526001602052604090206004015460ff1690565b60405190151581526020015b60405180910390f35b3480156100d357600080fd5b506100e76100e2366004610cfb565b6101d5565b6040516100be9796959493929190610d64565b34801561010657600080fd5b5061011a610115366004610dd7565b61036a565b6040516100be9190610dfb565b61013a610135366004610e3f565b6103d6565b005b34801561014857600080fd5b5061015c610157366004610e61565b610814565b6040519081526020016100be565b34801561017657600080fd5b5060005461018a906001600160a01b031681565b6040516001600160a01b0390911681526020016100be565b3480156101ae57600080fd5b506100e76101bd366004610cfb565b610845565b61013a6101d0366004610cfb565b6109a3565b60008060008060006060806000600160008a815260200190815260200160002090508060000160009054906101000a90046001600160a01b03168160010154826002015483600301548460040160009054906101000a900460ff16856005018660060181805461024490610e8d565b80601f016020809104026020016040519081016040528092919081815260200182805461027090610e8d565b80156102bd5780601f10610292576101008083540402835291602001916102bd565b820191906000526020600020905b8154815290600101906020018083116102a057829003601f168201915b505050505091508080546102d090610e8d565b80601f01602080910402602001604051908101604052809291908181526020018280546102fc90610e8d565b80156103495780601f1061031e57610100808354040283529160200191610349565b820191906000526020600020905b81548152906001019060200180831161032c57829003601f168201915b50505050509050975097509750975097509750975050919395979092949650565b6001600160a01b0381166000908152600260209081526040918290208054835181840281018401909452808452606093928301828280156103ca57602002820191906000526020600020905b8154815260200190600101908083116103b6575b50505050509050919050565b600181101580156103e85750600a8111155b61044e5760405162461bcd60e51b815260206004820152602c60248201527f52656e74616c20706572696f64206d757374206265206265747765656e20312060448201526b616e6420313020796561727360a01b60648201526084015b60405180910390fd5b600054604051630b1fba9160e11b81523360048201526001600160a01b039091169063163f752290602401602060405180830381865afa158015610496573d6000803e3d6000fd5b505050506040513d601f19601f820116820180604052508101906104ba9190610edc565b6104fc5760405162461bcd60e51b8152602060048201526013602482015272155cd95c881b9bdd081c9959da5cdd195c9959606a1b6044820152606401610445565b600080546040516332665ffb60e01b81526004810185905282918291829182916001600160a01b03909116906332665ffb90602401600060405180830381865afa15801561054e573d6000803e3d6000fd5b505050506040513d6000823e601f3d908101601f191682016040526105769190810190610faa565b97505050955050945094509450806105c65760405162461bcd60e51b8152602060048201526013602482015272141c9bdc195c9d1e481b9bdd081b1a5cdd1959606a1b6044820152606401610445565b81156106235760405162461bcd60e51b815260206004820152602660248201527f416c6c20736861726573206d75737420626520736f6c64206265666f72652072604482015265656e74696e6760d01b6064820152608401610445565b600061063060028561106e565b9050600061063e8883611090565b9050803410156106905760405162461bcd60e51b815260206004820152601d60248201527f496e73756666696369656e74207061796d656e7420666f722072656e740000006044820152606401610445565b4260006106a18a6301e13380611090565b6106ab90836110ad565b90506040518060e00160405280336001600160a01b031681526020018381526020018281526020018581526020016001151581526020018a815260200189815250600160008d815260200190815260200160002060008201518160000160006101000a8154816001600160a01b0302191690836001600160a01b0316021790555060208201518160010155604082015181600201556060820151816003015560808201518160040160006101000a81548160ff02191690831515021790555060a082015181600501908161077f919061110f565b5060c08201516006820190610794908261110f565b5050336000908152600260209081526040822080546001810182559083529120018c9055506107c28b6109a3565b604080518381526020810183905290810185905233908c907fe6aef257b8c2e2f01587b7dbe07bc085f3ee5a15cea0fa649e83e987e3404e6c9060600160405180910390a35050505050505050505050565b6002602052816000526040600020818154811061083057600080fd5b90600052602060002001600091509150505481565b60016020819052600091825260409091208054918101546002820154600383015460048401546005850180546001600160a01b039097169694959394929360ff9092169261089290610e8d565b80601f01602080910402602001604051908101604052809291908181526020018280546108be90610e8d565b801561090b5780601f106108e05761010080835404028352916020019161090b565b820191906000526020600020905b8154815290600101906020018083116108ee57829003601f168201915b50505050509080600601805461092090610e8d565b80601f016020809104026020016040519081016040528092919081815260200182805461094c90610e8d565b80156109995780601f1061096e57610100808354040283529160200191610999565b820191906000526020600020905b81548152906001019060200180831161097c57829003601f168201915b5050505050905087565b6000818152600160205260409020600481015460ff16610a105760405162461bcd60e51b815260206004820152602260248201527f4e6f206163746976652072656e74616c20666f7220746869732070726f706572604482015261747960f01b6064820152608401610445565b600080546040516356a79e9160e01b8152600481018590526001600160a01b03909116906356a79e9190602401600060405180830381865afa158015610a5a573d6000803e3d6000fd5b505050506040513d6000823e601f3d908101601f19168201604052610a8291908101906111cf565b90506000805b8251811015610b525760005483516001600160a01b0390911690638a5025a7908790869085908110610abc57610abc611281565b60200260200101516040518363ffffffff1660e01b8152600401610af39291909182526001600160a01b0316602082015260400190565b602060405180830381865afa158015610b10573d6000803e3d6000fd5b505050506040513d601f19601f82011682018060405250810190610b349190611297565b610b3e90836110ad565b915080610b4a816112b0565b915050610a88565b5060008111610b955760405162461bcd60e51b815260206004820152600f60248201526e139bc81cda185c995cc8199bdd5b99608a1b6044820152606401610445565b60005b8251811015610cf4576000838281518110610bb557610bb5611281565b602090810291909101015160008054604051638a5025a760e01b8152600481018a90526001600160a01b03808516602483015293945091921690638a5025a790604401602060405180830381865afa158015610c15573d6000803e3d6000fd5b505050506040513d601f19601f82011682018060405250810190610c399190611297565b90508015610cdf57600084828860030154610c549190611090565b610c5e919061106e565b6040519091506001600160a01b0384169082156108fc029083906000818181858888f19350505050158015610c97573d6000803e3d6000fd5b50604080518281524260208201526001600160a01b038516918a917ff8e3aac908e32bfaa0513d46d251211267145aba23f487e841ec6714e1f7efeb910160405180910390a3505b50508080610cec906112b0565b915050610b98565b5050505050565b600060208284031215610d0d57600080fd5b5035919050565b60005b83811015610d2f578181015183820152602001610d17565b50506000910152565b60008151808452610d50816020860160208601610d14565b601f01601f19169290920160200192915050565b60018060a01b0388168152866020820152856040820152846060820152831515608082015260e060a08201526000610d9f60e0830185610d38565b82810360c0840152610db18185610d38565b9a9950505050505050505050565b6001600160a01b0381168114610dd457600080fd5b50565b600060208284031215610de957600080fd5b8135610df481610dbf565b9392505050565b6020808252825182820181905260009190848201906040850190845b81811015610e3357835183529284019291840191600101610e17565b50909695505050505050565b60008060408385031215610e5257600080fd5b50508035926020909101359150565b60008060408385031215610e7457600080fd5b8235610e7f81610dbf565b946020939093013593505050565b600181811c90821680610ea157607f821691505b602082108103610ec157634e487b7160e01b600052602260045260246000fd5b50919050565b80518015158114610ed757600080fd5b919050565b600060208284031215610eee57600080fd5b610df482610ec7565b634e487b7160e01b600052604160045260246000fd5b604051601f8201601f1916810167ffffffffffffffff81118282101715610f3657610f36610ef7565b604052919050565b600082601f830112610f4f57600080fd5b815167ffffffffffffffff811115610f6957610f69610ef7565b610f7c601f8201601f1916602001610f0d565b818152846020838601011115610f9157600080fd5b610fa2826020830160208701610d14565b949350505050565b600080600080600080600080610100898b031215610fc757600080fd5b885167ffffffffffffffff80821115610fdf57600080fd5b610feb8c838d01610f3e565b995060208b015191508082111561100157600080fd5b5061100e8b828c01610f3e565b97505060408901519550606089015194506080890151935060a0890151925060c089015161103b81610dbf565b915061104960e08a01610ec7565b90509295985092959890939650565b634e487b7160e01b600052601160045260246000fd5b60008261108b57634e487b7160e01b600052601260045260246000fd5b500490565b80820281158282048414176110a7576110a7611058565b92915050565b808201808211156110a7576110a7611058565b601f82111561110a57600081815260208120601f850160051c810160208610156110e75750805b601f850160051c820191505b81811015611106578281556001016110f3565b5050505b505050565b815167ffffffffffffffff81111561112957611129610ef7565b61113d816111378454610e8d565b846110c0565b602080601f831160018114611172576000841561115a5750858301515b600019600386901b1c1916600185901b178555611106565b600085815260208120601f198616915b828110156111a157888601518255948401946001909101908401611182565b50858210156111bf5787850151600019600388901b60f8161c191681555b5050505050600190811b01905550565b600060208083850312156111e257600080fd5b825167ffffffffffffffff808211156111fa57600080fd5b818501915085601f83011261120e57600080fd5b81518181111561122057611220610ef7565b8060051b9150611231848301610f0d565b818152918301840191848101908884111561124b57600080fd5b938501935b83851015611275578451925061126583610dbf565b8282529385019390850190611250565b98975050505050505050565b634e487b7160e01b600052603260045260246000fd5b6000602082840312156112a957600080fd5b5051919050565b6000600182016112c2576112c2611058565b506001019056fea2646970667358221220fb4b61ff9ccdec74b573cec64d7a60f3d6a68a01537250fbcee0be8056c1fb2d64736f6c63430008130033",
  "immutableReferences": {},
  "source": "// SPDX-License-Identifier: MIT\r\npragma solidity ^0.8.0;\r\n\r\nimport \"./RealEstate.sol\";\r\n\r\ncontract RealEstateRental {\r\n    RealEstate public realEstate;\r\n\r\n    struct Rental {\r\n        address tenant;\r\n        uint256 startDate;\r\n        uint256 endDate;\r\n        uint256 yearlyRent;\r\n        bool isActive;\r\n        string propertyName;\r\n        string propertyLocation;\r\n    }\r\n\r\n    mapping(uint256 => Rental) public propertyRentals;\r\n    mapping(address => uint256[]) public userRentals;\r\n\r\n    event PropertyRented(\r\n        uint256 indexed propertyId,\r\n        address indexed tenant,\r\n        uint256 startDate,\r\n        uint256 endDate,\r\n        uint256 yearlyRent\r\n    );\r\n\r\n    event RentalPaymentDistributed(\r\n        uint256 indexed propertyId,\r\n        address indexed shareholder,\r\n        uint256 amount,\r\n        uint256 paymentDate\r\n    );\r\n\r\n    constructor(address _realEstateAddress) {\r\n        realEstate = RealEstate(_realEstateAddress);\r\n    }\r\n\r\n    function rentProperty(uint256 _propertyId, uint256 _years) public payable {\r\n        require(_years >= 1 && _years <= 10, \"Rental period must be between 1 and 10 years\");\r\n        require(realEstate.isUserRegistered(msg.sender), \"User not registered\");\r\n\r\n        // Get property details\r\n        (\r\n            string memory name,\r\n            string memory location,\r\n            uint256 totalValue,\r\n            ,\r\n            uint256 availableShares,\r\n            ,\r\n            ,\r\n            bool isListed\r\n        ) = realEstate.getProperty(_propertyId);\r\n\r\n        require(isListed, \"Property not listed\");\r\n        require(availableShares == 0, \"All shares must be sold before renting\");\r\n\r\n        // Calculate yearly rent (50% of total value)\r\n        uint256 yearlyRent = totalValue / 2;\r\n        uint256 totalRent = yearlyRent * _years;\r\n        require(msg.value >= totalRent, \"Insufficient payment for rent\");\r\n\r\n        // Set up rental\r\n        uint256 startDate = block.timestamp;\r\n        uint256 endDate = startDate + (_years * 365 days);\r\n        \r\n        propertyRentals[_propertyId] = Rental({\r\n            tenant: msg.sender,\r\n            startDate: startDate,\r\n            endDate: endDate,\r\n            yearlyRent: yearlyRent,\r\n            isActive: true,\r\n            propertyName: name,\r\n            propertyLocation: location\r\n        });\r\n\r\n        // Add to user's rental list\r\n        userRentals[msg.sender].push(_propertyId);\r\n\r\n        // Distribute rental payment to shareholders\r\n        distributeRentalPayment(_propertyId);\r\n\r\n        emit PropertyRented(_propertyId, msg.sender, startDate, endDate, yearlyRent);\r\n    }\r\n\r\n    function distributeRentalPayment(uint256 _propertyId) public payable {\r\n        Rental storage rental = propertyRentals[_propertyId];\r\n        require(rental.isActive, \"No active rental for this property\");\r\n\r\n        // Get shareholders from RealEstate contract\r\n        address[] memory shareholders = realEstate.getPropertyShareholders(_propertyId);\r\n        uint256 totalShares = 0;\r\n\r\n        // Calculate total shares\r\n        for (uint256 i = 0; i < shareholders.length; i++) {\r\n            totalShares += realEstate.getPropertyShares(_propertyId, shareholders[i]);\r\n        }\r\n\r\n        require(totalShares > 0, \"No shares found\");\r\n\r\n        // Distribute payment to each shareholder\r\n        for (uint256 i = 0; i < shareholders.length; i++) {\r\n            address shareholder = shareholders[i];\r\n            uint256 shares = realEstate.getPropertyShares(_propertyId, shareholder);\r\n            \r\n            if (shares > 0) {\r\n                uint256 payment = (rental.yearlyRent * shares) / totalShares;\r\n                payable(shareholder).transfer(payment);\r\n\r\n                emit RentalPaymentDistributed(\r\n                    _propertyId,\r\n                    shareholder,\r\n                    payment,\r\n                    block.timestamp\r\n                );\r\n            }\r\n        }\r\n    }\r\n\r\n    function getUserRentals(address _user) public view returns (uint256[] memory) {\r\n        return userRentals[_user];\r\n    }\r\n\r\n    function getRentalDetails(uint256 _propertyId) public view returns (\r\n        address tenant,\r\n        uint256 startDate,\r\n        uint256 endDate,\r\n        uint256 yearlyRent,\r\n        bool isActive,\r\n        string memory propertyName,\r\n        string memory propertyLocation\r\n    ) {\r\n        Rental storage rental = propertyRentals[_propertyId];\r\n        return (\r\n            rental.tenant,\r\n            rental.startDate,\r\n            rental.endDate,\r\n            rental.yearlyRent,\r\n            rental.isActive,\r\n            rental.propertyName,\r\n            rental.propertyLocation\r\n        );\r\n    }\r\n\r\n    function isPropertyRented(uint256 _propertyId) public view returns (bool) {\r\n        return propertyRentals[_propertyId].isActive;\r\n    }\r\n} ",
  "sourcePath": "C:\\Users\\asus\\OneDrive\\Desktop\\dApp\\contracts\\RealEstateRental.sol",
  "compiler": {
    "name": "solc",
    "version": "0.8.19+commit.7dd6d404.Emscripten.clang"
  },
  "schemaVersion": "3.4.16",
  "updatedAt": "2025-04-30T07:02:06.946Z",
  "networkType": "ethereum",
  "devdoc": {
    "kind": "dev",
    "methods": {},
    "version": 1
  },
  "userdoc": {
    "kind": "user",
    "methods": {},
    "version": 1
  }
}